:020000040800F2
:10000000680C002001010008F7240008D91F00082F
:10001000F5240008510A0008212C00080000000007
:10002000000000000000000000000000532700084E
:10003000530A000800000000512700085527000857
:100040001B0100081B0100081B0100081B01000820
:100050001B0100081B0100081B0100081B01000810
:100060001B0100081B0100081B0100081B01000800
:100070001B0100081B0100081B0100081B010008F0
:100080001B0100081B0100081B0100081B010008E0
:100090001B0100081B0100081B0100081B010008D0
:1000A0001B0100081B0100081B0100081B010008C0
:1000B0001B010008052800081B0100081B0100089F
:1000C0001B0100081B0100081B0100081B010008A0
:1000D0001B010008D92B00081B010008F92B0008A0
:1000E0001B0100081B0100081B010008DFF80CD0F1
:1000F00000F060FA00480047BD3E0008680C002090
:100100000648804706480047FEE7FEE7FEE7FEE7B1
:10011000FEE7FEE7FEE7FEE7FEE7FEE7032800084E
:10012000ED000008202A04DB203A21FA02F0002129
:10013000704721FA02F3D040C2F1200291400843F7
:1001400019467047D2B201E000F8012B491EFBD2DC
:1001500070470022F6E710B513460A4604461946D2
:10016000FFF7F0FF204610BD30B505462A460B4686
:1001700012F8010B13F8014B08B1A042F8D01CB1E2
:10018000002802D06D1CF1E7284630BD421C10F853
:10019000011B0029FBD1801A704710B5002200E036
:1001A000521C835C8C5CA34201D1002BF8D1D8B2E5
:1001B000E1B2401A10BD30B50B46014600202022A6
:1001C000012409E021FA02F59D4205D303FA02F564
:1001D000491B04FA02F52844151EA2F10102F1DCC4
:1001E00030BD2DE9F05F0546002092469B468846CB
:1001F0000646814640241BE02846414647462246A3
:10020000FFF790FF53465A46C01A914110D311464A
:100210001846224600F0E0F92D1A67EB01084F4618
:1002200022460120002100F0D7F917EB00094E41CA
:10023000201EA4F10104DFDC484631462A4643462D
:10024000BDE8F09F2DE9FE4F804681EA0300C00F14
:100250000C46009021F0004123F00045B8EB02006D
:10026000A94105D24046214690461C460B4602460F
:1002700023F00040104347D0270DC7F30A00C3F313
:100280000A510290401A019040286BDAC3F3130020
:1002900040F4801B0098924620B10023D2EB030A61
:1002A00063EB0B0B01985946C0F14002504600F039
:1002B00093F906460D4650465946019A00F09BF9BF
:1002C00010EB08006141002487EA115284EAE773C9
:1002D0001A4340D0009A62B3019A012A4FEA0752AA
:1002E00015DC001B61EB02014FF0004202EA0752ED
:1002F000CDE90042001C41F5801132462B4600F04A
:100300009BF903B0BDE8F08F40462146F9E7001B9A
:1003100061EB0201001C41F5801300185B412018BD
:10032000A2F5001747EB030140EAD570B6196D41FD
:1003300011E06D084FEA360645EAC0754FEA0752EC
:10034000001B61EB0201001C41F5801149084FEAD6
:1003500030000019514132462B4603B0BDE8F04F42
:1003600000F05BB90098012240000023D0EB0202AC
:1003700063EBE073009821464FEAE074B8EB0000AD
:1003800061EB0401E9E783F000435BE781F00041A2
:1003900058E72DE9FE4F81EA030404F0004421F000
:1003A000004100944FF0000B23F0004350EA010499
:1003B0005ED052EA03045BD0C3F30A54C1F30A557A
:1003C0002C44A4F2F3340194A0FB0254C1F31301B2
:1003D00041F48011C3F3130343F4801301FB02447F
:1003E00000FB034E840A970A44EA815447EA835784
:1003F000A4FB076802958D0A05FB07854FEA932C3D
:1004000004FB0C542705029D4FEA065847EA1637AD
:10041000B5EB08056EEB070C870E920E47EA8117C5
:1004200042EA8312A7FB0201B6EB0B0164EB000466
:100430002B0D43EA0C335E1844EB1C50DA46514650
:10044000E7FB0201C5F313044FEA0B3343EA1453ED
:100450004FEA0432019C43EA0603A4F10C0402941F
:10046000009CCDE900B400F0E7F803B0BDE8F08FE0
:1004700000200146F9E72DE9F04D81EA030404F07C
:10048000004B21F0004514464FF0000A23F00041D4
:1004900050EA050220D054EA01021DD0C5F30A57E4
:1004A0000246C5F31303C1F31300C1F30A5640F427
:1004B000801543F48013A7EB0608101BD64608F2FC
:1004C000FD3873EB050002D308F1010801E0921832
:1004D0005B41B8F1000F03DA00200146BDE8F08D62
:1004E00000204FF48011064684460EE0171B73EB84
:1004F000050705D3121B63EB050306434CEA010C09
:1005000049084FEA300092185B4150EA0107EDD1EB
:1005100052EA030012D082EA040083EA050108438C
:1005200005D0101BAB4106D20122002306E00022B9
:100530004FF0004302E06FF0010253101AEB060087
:100540004CEB085110EB0A0041EB0B01BDE8F04DFC
:1005500000F063B8C1F30A52C1F3130140F2FF3354
:1005600041F480119A4202DA00200146704740F2BD
:1005700033439A42A2F2334202DC5242FFF7D2BD29
:1005800000F02AB830B5041E71F1000404DB4FF00E
:100590000044404264EB0101141E73F1000405DBCA
:1005A0001C464FF00043524263EB0403994208BFDC
:1005B000904230BD064C074D06E0E06840F0010374
:1005C00094E8070098471034AC42F6D3FFF792FD49
:1005D0007C4A00089C4A0008202A04DB203A00FAE2
:1005E00002F1002070479140C2F1200320FA03F38A
:1005F000194390407047202A06DBCB17203A41FA76
:1006000002F043EAE07306E041FA02F3D040C2F19F
:100610002002914008431946704710B5141E73F12B
:10062000000408DA401C41F1000192185B411A43B2
:1006300001D120F0010010BD2DE9F04D92469B46FE
:1006400011B1B1FA81F202E0B0FA80F220329046A4
:10065000FFF7C2FF04460F4640EA0A0041EA0B01D9
:1006600053465A46084313D0114653EA010019D0A5
:10067000C8F140025046FFF755FD05460E4650466C
:1006800059464246FFF7A8FF084305D0012004E081
:1006900020463946BDE8F08D0020054346EAE07665
:1006A0002C4337430A986305E40AA0EB08000022B4
:1006B000FD0A44EA47540A3002D500200146E9E722
:1006C000010510196941DDE9084500196941BDE8D6
:1006D000F04DA2E72DE9104002F0B6FF02F066FFF0
:1006E00020B133A001F0DAFF35A053E03AA001F0C9
:1006F000D5FF3CA002F0A6FA002003F067F90446FB
:10070000002003F097F804443CA23EA1002003F02F
:100710003BF80444002003F0B5F8044403F06EF8FD
:100720000444012003F0DAF80444012003F0FEF849
:100730000444012003F022F90444002003F05CFA91
:10074000044435A002F048FF044439A002F060FFE1
:100750000444002002F0AAFF044402F0CFFF044446
:1007600002F0F4FF0444012003F098F9044403F07C
:10077000BDF9044403F0FEF9044403F0DFF9044436
:1007800002F084FF204410F0FF0F06D02BA001F0F0
:1007900085FF2EA002F056FA9EE732A001F07EFF00
:1007A00033A002F04FFABDE8104003F015BD000081
:1007B000344720496E6974204552524F5200000060
:1007C00041544B2D494D4437353020496E697420D2
:1007D0004552524F520D0A00344720496E69742029
:1007E0004F4B000041544B2D494D44373530204983
:1007F0006E6974204F4B0D0A000000003539363603
:1008000036000000636C6F75642E616C69656E74F0
:10081000656B2E636F6D00003937363333353030FA
:100820003139343035353939303331310000000059
:100830003132333435363738000000003447204E2B
:1008400045542E204552524F5200000041544B2D2A
:10085000494D44373530204E45542E204552524F95
:10086000520D0A003447204E45542E204F4B0000B5
:1008700041544B2D494D44373530204E45542E20A0
:100880004F4B0D0A000000002DE91F4003F08EFAC7
:1008900003F0DAF920B121A001F000FF23A030E03D
:1008A00028A001F0FBFE2BA002F0CCF9012003F000
:1008B000B9FA044603F0E4FA0444002003F0DAF93C
:1008C00004442AA12EA003F04DFA0444684603F024
:1008D0001FFA204410F0FF0F04D02CA001F0DEFE20
:1008E0002EA00EE033A001F0D9FE36A002F0AAF946
:1008F0003AA13DA003F0DCF930B141A001F0CEFEF9
:1009000043A002F09FF9C1E747A001F0C7FE4AA04B
:1009100002F098F903F060FC1FBD00003832363653
:1009200020496E6974204552524F520041544B2D5C
:100930004D573832363620496E6974204552524F31
:10094000520D0A003832363620496E6974204F4BFA
:100950000000000041544B2D4D57383236362049A7
:100960006E6974204F4B0D0A000000004877616EDD
:1009700067313335323235393531303300000000DC
:100980004833435F35384436413500003832363617
:100990002057696669204552524F520041544B2DF1
:1009A0004D57383236362057696669204552524FC6
:1009B000520D0A00383236362057696669204F4B8F
:1009C0000000000041544B2D4D5738323636205729
:1009D000696669204F4B0D0A000000003132333444
:1009E000353637380000000033393133353832308E
:1009F000303433303638373538323736000000007F
:100A000038323636204C696E6B204552524F5200B8
:100A100041544B2D4D5738323636204C696E6B2081
:100A20004552524F520D0A0038323636204C696E0C
:100A30006B204F4B0000000041544B2D4D57383276
:100A40003636204C696E6B204F4B0D0A00000000BB
:100A5000FEE77047FFF718FF0125104C002600BF86
:100A600003F0DAFB6060021E14D00DA10D4802F005
:100A7000F9F80C4801F012FE0BA16068FFF78DFB3E
:100A800000B925700AA16068FFF787FB00B92670DE
:100A900003F0A2FB03F080FAE2E700001C00002054
:100AA00025730000280800206F70656E00000000AC
:100AB000636C6F736500000072B6FEE710B590F8C6
:100AC00021100022022905D00421816380F8202012
:100AD000012010BD01680B6823F00E030B60016854
:100AE0000B6823F001030B6090F84030C46B0121C8
:100AF00001FA03F3636080F8211080F8202010468B
:100B000010BD000010B590F821100024022903D078
:100B10000421816301243DE001680A6822F00E028D
:100B20000A6001680A6822F001020A601A4A016834
:100B3000914201D1012121E0174A1432914201D1A1
:100B400010211BE0144A2832914201D1891515E089
:100B5000114A3C32914201D189140FE00E4A5032C1
:100B6000914202D14FF4803108E00B4A6432914245
:100B700002D14FF4801101E04FF08071064A083A2B
:100B80005160012180F82110002180F82010416B74
:100B900001B18847204610BD0800024070B50446E8
:100BA00000F010F90546601C02D0044800780444A7
:100BB00000F008F9401BA042FAD370BD24000020C9
:100BC0002DE9F84FDFF8B8910024A9F1040B234672
:100BD0000F2709F1040AABF1040EC9E00125A54075
:100BE0002A40AA427DD1674ED1F804C0ACEB06087A
:100BF000B44532D014DCBCF1030F3AD009DCBCF1AF
:100C0000000F2AD0BCF1010F1CD0BCF1020F31D172
:100C10001DE0BCF1110F17D0BCF1120F2AD119E061
:100C2000B8F5881F19D006DCB8F5803F15D0B8F5A7
:100C3000801F1FD111E0B8F5001F0ED0B8F5041FBA
:100C400018D10AE0CB6815E0CB681B1D12E0CB6819
:100C500008330FE0CB680C330CE08B682BB1012B11
:100C60004FF0080303D0456104E0042302E005616E
:100C700000E00023FF2A01D8064601E000F1040647
:100C80004FEA840501D9A5F12005D6F8008007FABE
:100C900005FC28EA0C0803FA05F548EA0508C6F839
:100CA00000804D68ED0062D5374DAE6946F0010613
:100CB000AE61AD6924F0030605F001050095334DE2
:100CC00006EB050CDCF80850A607360F07FA06F805
:100CD00025EA0805DFF8B880404503D14FF0000849
:100CE00017E044E0DFF8AC80404502D14FF0010846
:100CF0000FE0DFF8A480404502D14FF0020808E081
:100D0000DFF89880404502D14FF0030801E04FF032
:100D1000040808FA06F848EA0508CCF808804D6887
:100D2000D9F80060ED024D4601D5164300E0964328
:100D30002E604D68DAF80060AD02554601D51643C5
:100D400000E096432E604D68DBF80060AD035D4621
:100D500001D5164300E096432E604D68DEF8006032
:100D6000ED03754601D5164300E096432E60641CE2
:100D70000D682A46E5407FF431AFBDE8F88F0000EA
:100D80000804014000001110001002400000014062
:100D900000080140000C0140001001400014014017
:100DA0008068084000D001207047C26821EA020331
:100DB0000A4043EA0241016170470AB1016170478C
:100DC0000904FBE701488068704700002400002008
:100DD00070B5040025D094F83D00002520B984F8B2
:100DE0003C50204600F04EF9242084F83D00206855
:100DF000016821F0010101602068016841F40041AF
:100E000001602068016821F40041016000F09AFA55
:100E10004D4A6168914201D84C4900E04C498842F2
:100E200001D2012070BD4B492368B0FBF1F15E682F
:100E300026F03F060E435E606368934206D94FF486
:100E4000967359434FF47A73B1FBF3F12368491C4D
:100E50001E6A26F03F06314319626168914210D83C
:100E60004900401EB0FBF1F2521CC2F30B02042AEF
:100E700001D2042022E0B0FBF1F0401CC0F30B00D3
:100E80001CE0A268F2B301EBC10303EB0116431EA1
:100E9000B3FBF6F35B1C43F480431B0549D092B3CC
:100EA00001EBC10202EB0111401EB0FBF1F0401C4E
:100EB000C0F30B0040F4804040F400402168CA6950
:100EC0004CF6FF739A431043C861D4E907100143FD
:100ED0002068026822F0C00211430160D4E90301D6
:100EE00001432068826848F2FF339A4311438160CE
:100EF000D4E9050108432168CA6822F0FF021043C3
:100F0000C86001E00EE016E02068016841F00101D0
:100F100001602564202084F83D00256384F83E505C
:100F2000002070BD01EB4106431EB3FBF6F35B1CD2
:100F3000B3E70120C2E701EB4101401EB0FBF1F035
:100F4000401CC0F30B00B7E7A086010080841E00A0
:100F500000093D0040420F002DE9F84F1F46904622
:100F60008A460446DDF82890FFF72CFF054694F8E2
:100F70003D0020287FD119230122404920460095B9
:100F800001F0B6F8002876D194F83C00012872D020
:100F9000012084F83C0020680168C90703D101687A
:100FA00041F0010101602068016821F400610160E5
:100FB000212084F83D00102084F83E00002626649D
:100FC000C4F824806785608D20852D48E0622B461B
:100FD0004A465146204601F017F890B92068416909
:100FE0008069009036E02A464946204601F0FFF825
:100FF00050B1206C042804D12068016841F40071CC
:1010000001600120BDE8F88F606A216800780861FE
:10101000606A401C6062618D491E6185218D491E98
:1010200089B2218522685369DB435B070BD451B138
:1010300000781061606A401C6062608D401E6085AF
:10104000208D401E20852A464946204601F02AF878
:101050000028CED1208D0028C5D154F83D0B016861
:1010600041F400710160202004F81E09E6776677DC
:101070000020C7E7FFE70220C4E7000002001000DD
:101080000000FFFF10B586B0002100910191029190
:10109000039100680F4988421AD10F4CA06940F0B3
:1010A0000800A061A069694600F008000490C02013
:1010B000009012200190032003900848FFF780FD64
:1010C000E06940F40010E061E06900F40010049071
:1010D00006B010BD0054004000100240000C01405A
:1010E0000248816802781144816070472400002022
:1010F000074810B5016841F010010160052000F0BB
:1011000079F8032000F006F800F024F8002010BD64
:101110000020024070B50D4D04464FF47A712878D6
:10112000B1FBF0F00A490968B1FBF0F000F0E0FA19
:1011300048B9102C07D200222146501E00F03AF880
:1011400000206C6070BD012070BD000024000020F4
:10115000300000200E4808B5816941F0010181612D
:10116000816901F001010091C16941F08051C161C3
:10117000C06900F080500090052000F03BF8054861
:10118000416821F0E06141F00071416008BD00005C
:101190000010024000000140002809DB00F01F029F
:1011A000012191404009800000F1E020C0F80011C9
:1011B00070470000F0B40E4B1B680C46C3F30223CB
:1011C000C3F10705042D00D90425191D072901D2F3
:1011D000002300E0DB1E012606FA05F1491E21402E
:1011E00099409E40761E16403143F0BC01F060BD30
:1011F0000CED00E0064900F0070208684FF6FF0317
:10120000184040EA0220034A10430860704700007B
:101210000CED00E00000FA052DE9F0470F4605004F
:1012200061D0434E306800F00700B84209D2306800
:1012300020F0070038433060306800F00700B84203
:1012400051D128683B4C810712D5400703D560680F
:1012500040F4E06060602878000703D5606840F4DF
:10126000605060606068A96820F0F000084360602A
:101270002878C00728D06868012810D02168022883
:1012800010D0890700292EDA616821F0030101439B
:101290006160FFF797FD804641F288390DE02168D3
:1012A0008903EFE78901EDE7FFF78CFDA0EB08016B
:1012B000494502D90320BDE8F0876068696800F0FD
:1012C0000C00B0EB810FEFD1306800F00700B8429E
:1012D0000BD9306820F0070038433060306800F0E8
:1012E0000700B84201D00120E5E72878400705D57E
:1012F0006068E96820F4E0600843606028780007CF
:1013000006D56068296920F4605040EAC100606039
:1013100000F038F86168084AC1F30311515CC84015
:101320000649086006480068FFF7F4FE0020C2E79F
:101330000020024000100240624A000830000020F5
:10134000280000200448054900684968044AC1F3A0
:101350000221515CC840704730000020001002405C
:10136000724A00080448054900684968044AC1F304
:10137000C221515CC840704730000020001002407C
:10138000724A00080E4A51680E4801F00C03042B03
:1013900011D0082B0FD10C48C1F38343C903C05CA3
:1013A0000AD55168084AC1F34041921E515C054A72
:1013B0005043B0FBF1F070470449484370470000C8
:1013C0000010024000127A00524A000800093D0055
:1013D0002DE9F84F040070D02078C04DC00749D0E7
:1013E0006868C0F38100012807D06868C0F38100F5
:1013F000022809D16868C00306D52868800339D55A
:1014000060680028E7D035E06068B0F5803F0BD019
:1014100010B1B0F5A02F11D0286820F480302860DA
:10142000286820F4802002E0286840F4803028609A
:10143000606890B1FFF7C6FC06460AE0286840F4F1
:1014400080202860F0E700BFFFF7BCFC801B642809
:1014500073D828688003F7D50CE0FFF7B3FC064685
:1014600005E000BFFFF7AEFC801B6428F0D82868B9
:101470008003F7D420789A4E80074FF001094FF08F
:10148000000839D5686810F00C0F07D06868C0F301
:101490008100022809D16868C00306D42868800743
:1014A00014D52069012808D110E02069B0B1C6F830
:1014B0000090FFF787FC074605E00AE1FFF782FC92
:1014C000C01B0228C4D828688007F7D5286861693E
:1014D00020F0F80040EAC10028600DE0C6F8008066
:1014E000FFF770FC074604E0FFF76CFCC01B022806
:1014F00023D828688007F7D4207800072CD57948AE
:10150000A169D9B1C0F80090FFF75CFC074604E080
:10151000FFF758FCC01B02280FD8686A8007F7D570
:1015200071484FF4FA510068B0FBF1F0009000BF31
:101530000098411E0091FAD20EE080E0C0F80080D1
:10154000FFF740FC074604E0FFF73CFCC01B022805
:1015500075D8686A8007F7D42078400760D5E869B5
:101560000027C00008D4E86940F08050E861E869CD
:10157000012700F0805000905C480168C90513D431
:101580000168834641F480710160FFF71BFC8246CD
:1015900006E000BFFFF716FCA0EB0A0064284ED857
:1015A000DBF80000C005F5D5E06801280AD008B1D5
:1015B000052813D0286A20F001002862286A20F04C
:1015C000040002E0286A40F001002862E06841F26D
:1015D000883B98B1FFF7F6FB82460BE0286A40F0A3
:1015E00004002862EEE700BFFFF7ECFBA0EB0A0166
:1015F00059455AD8286A8007F6D50CE0FFF7E2FB78
:10160000824605E0FFF7DEFBA0EB0A0159454CD806
:10161000286A8007F6D41FB1E86920F08050E8619D
:10162000E06988B36968C1F38101022944D00228C6
:10163000C6F8608004D0FFF7C5FB044638E034E00C
:10164000FFF7C0FB074604E0FFF7BCFBC01B022806
:101650002BD828688001F7D4206AB0F5803F05D1E7
:101660006868A16820F4003008436860D4E9080184
:101670000843696821F4741108436860C6F86090F3
:10168000FFF7A0FB044606E025E000BFFFF79AFB4A
:10169000001B022809D828688001F7D51BE000BF8D
:1016A000FFF790FB001B022802D90320BDE8F88F4A
:1016B00028688001F4D40EE00128F7D06868226A17
:1016C00000F48031914204D1616A00F470108842C4
:1016D00001D00120EAE70020E8E700000010024006
:1016E000000042428004424230000020007000406E
:1016F00010B5401EB0F1807F01D3012010BD4FF026
:10170000E02460610F21601701F0D2FA0020A0618F
:1017100007202061002010BD7047704770B590F819
:101720003C20012A26D0012480F83C40022280F887
:101730003D2003685A689D6822F070060A683243AB
:101740005A600D4B02689A4208D0B2F1804F05D022
:101750000A4B9A4202D00A4B9A4204D1496825F0BA
:1017600080031943916080F83D40002180F83C10CF
:10177000084670BD022070BD002C014000040040EE
:101780000008004010B5040003D094F83D0010B1EB
:1017900007E0012010BD002084F83C00204600F046
:1017A0001FF8022084F83D00211D206801F064F834
:1017B000012084F8460084F83E0084F83F0084F855
:1017C000400084F8410084F8420084F8430084F823
:1017D000440084F8450084F83D00002010BD00005E
:1017E00008B500680B49884212D10B48C16941F025
:1017F0000201C161C069032200F0020000900121D2
:101800001D20FFF7D7FCBDE808401D20FFF7C4BC32
:1018100008BD0000000400400010024090F83D1098
:10182000012901D001207047022180F83D10016894
:10183000CA6842F00102CA6000680B49884208D0B9
:10184000B0F1804F05D00949884202D0084988424A
:1018500004D1816801F00701062903D0016841F035
:101860000101016000207047002C0140000400408D
:101870000008004070B5044690F83C00002501289F
:1018800017D0012684F83C60022084F83D002068CF
:10189000826822F0770222F47F4282600868502832
:1018A00038D00DDC20284FD005DC90B3102811D1A2
:1018B0004AE0022070BD302846D040280AD13BE0E3
:1018C00060282FD070280DD0B0F5805F03D0B0F520
:1018D000005F12D0012584F83D60002084F83C00B0
:1018E000284670BDCB68D1E90121206800F0FAFFDD
:1018F0002068816841F0770109E0CB68D1E90121D6
:10190000206800F0EFFF2068816841F48041816029
:10191000E1E719E0CA684968206800F0F5FF502146
:10192000206806E0CA684968206800F0FEFF602170
:10193000206800F0E1FFCEE7CA684968206800F03F
:10194000E3FF40212068F4E7226801461046F0E7F3
:10195000704770B50446006801694FF00005C9433F
:10196000890715D4C168C943890711D4E91E0161EB
:1019700001202077206880698007204602D0FFF789
:10198000E7FF04E000F098F8204600F096F825778D
:1019900020680169C943490717D4C168C943490789
:1019A00013D46FF004010161022020772068806960
:1019B00010F4407F204602D0FFF7CAFF04E000F099
:1019C0007BF8204600F079F8257720680169C94343
:1019D000090716D4C168C943090712D46FF008017A
:1019E0000161042020772068C0698007204602D06A
:1019F000FFF7AEFF04E000F05FF8204600F05DF86E
:101A0000257720680169C943C90617D4C168C9434D
:101A1000C90613D46FF010010161082020772068F7
:101A2000C06910F4407F204602D0FFF791FF04E028
:101A300000F042F8204600F040F825772068016960
:101A4000C943C90708D1C168C943C90704D1891E60
:101A50000161204600F032F820680169C943090697
:101A600009D4C168C943090605D46FF0800101613A
:101A70002046FFF751FE20680169C943490609D491
:101A8000C168C943490605D46FF040010161204691
:101A900000F015F820680169C94389060BD4C168B4
:101AA000C943890607D46FF0200101612046BDE8D3
:101AB0007040FFF732BE70BD704770477047704787
:101AC00070477047F8B5016804460868CA684B69F2
:101AD00010F00F0F4FF0000559D003F0010602F48B
:101AE0009077374365D0C10705D0D10503D5616C28
:101AF00041F001016164410705D5D90703D0616C4C
:101B000041F002016164810705D5D90703D0616CFA
:101B100041F004016164010707D502F0200131435F
:101B200003D0616C41F008016164616C00293AD016
:101B3000800604D5900602D5204600F037FF2068C5
:101B40004069616CC0F38010090700D460B320467F
:101B500000F005FF20684069400621D52068143058
:101B600050E8001F21F0400140E80012002AF5D1A2
:101B7000E06BA8B16D494163E06BFEF7C3FF00283D
:101B800011D0E06B416B01B0BDE8F040084783061F
:101B90000FD593060DD52046BDE8F84000F006BFEE
:101BA0002046FFF78EFFF8BD2046FFF78AFF6564E9
:101BB000F8BD266B2023012E7CD1C6067AD5D60629
:101BC00078D508684868009048694FF002064006DA
:101BD00040D5E16B086840680004000CE8D0A28D95
:101BE0008242E5D9E085886920282DD020680C3014
:101BF00050E8001F21F4807140E80012002AF5D15E
:101C00002068143050E8001F21F0010140E8001264
:101C1000002AF5D12068143050E8001F21F040015F
:101C200040E80012002AF5D184F84230256320688C
:101C30000C3050E8001F21F0100140E80012002A8B
:101C4000F5D1E06BFEF73AFF6663A08DE18D401A97
:101C500081B22AE0A08DE18D401A81B2E08D00288A
:101C6000A6D00029A4D022680C3252E8000F20F43C
:101C7000907042E80007002FF5D12068143050E83A
:101C8000002F22F0010240E80027002FF5D184F850
:101C90004230256320680C3050E8002F22F01002FB
:101CA00040E80023002BF5D166632046FFF708FFCC
:101CB000F8BDFFE705062BD5150629D594F8410098
:101CC0002128F5D1A068B0F5805F01D12069B0B1BD
:101CD000206A411C2162216800784860E08C401E27
:101CE0000004000CE084E3D12068C16821F0800189
:101CF000C1602068C16841F04001C160D8E7206A36
:101D00000088C0F308004860206A801C2062E5E774
:101D10004006CDD55006CBD5CA68204622F04002F9
:101D2000CA6084F8413000F056F9C1E74F29000835
:101D300070B5040004D094F84100002510B106E00D
:101D4000012070BD84F84050204600F023F8242084
:101D500084F841002068C16821F40051C160204628
:101D600000F086FE2068016921F49041016120683D
:101D7000416921F02A0141612068C16841F40051A4
:101D8000C1606564202084F8410084F842006563E6
:101D9000002070BD70B586B00024009401940294B8
:101DA000039402682E482D4B0221032506159A4202
:101DB00026D1826942F480428261826902F48042C3
:101DC0000492826942F0040282618069039500F006
:101DD000040004900802CDE90001224D694628461E
:101DE000FEF7EEFECDE90064694628460294FEF750
:101DF000E7FE022211462520FFF7DCF9252029E025
:101E0000194B9A4228D1C26942F48022C261C26948
:101E100002F480220492826942F0080282618069A1
:101E2000CDE9006100F00800CDE903500F4E69468E
:101E30003046FEF7C5FEF014CDE900046946304691
:101E4000CDE90245FEF7BCFE002211462720FFF730
:101E5000B1F92720FFF7A0F906B070BD00380140A6
:101E6000001002400008014000480040000C014002
:101E700090F84230202B01D00220704721B11AB1D6
:101E80000023036300F050BE0120704770B5044684
:101E9000204A0168002091421DD11F490A8813047D
:101EA00014D41E4B55041B7804D50A2B0DD142F4D3
:101EB00000400AE00D2B1ED0C2F30D05184E521C37
:101EC00092B273550A80C72A00D9088001221349AB
:101ED0001448FFF7CDFF14492068884219D11349EF
:101EE00040F2FF34124A0888124BA04206D2127800
:101EF0001A54401C05E042F48040E6E71078187060
:101F000001200880BDE87040012209490A48FFF716
:101F1000AFBF70BD003801400E000020120000204D
:101F2000D00000209807002000480040100000204A
:101F30001300002098010020E00700202DE9F8435D
:101F4000044690F841001F4616460D46202802D050
:101F50000220BDE8F8837DB176B1002060642120C5
:101F600084F84100FEF72EFFA6848046E684A06830
:101F7000B0F5805F02D003E00120EAE7206910B1EC
:101F80002E4600250EE000260CE08021204600F0C1
:101F9000E6FDA0B9AEB116F8010B21684860E08CEF
:101FA000401EE084E08C43464FF00002009700287A
:101FB000EBD14FF04001204600F0D1FD30B10320BD
:101FC000C7E735F8020BC0F30800E6E7202084F8E5
:101FD00041000020BDE77047FEE701684A69D2432F
:101FE00052050FD46FF480624A61002140F8301F1F
:101FF000202242738173026942F00402026101737C
:102000000120704700207047F8B50446C06A1E469C
:102010000D461746082807D0012805D010F5803F47
:1020200002D0206B122804D12068016841F480712D
:102030000160134600224FF001112046009600F087
:1020400057F840B120680068C00502D54FF4007011
:1020500020640320F8BD2069B0F5804F0ED0062023
:10206000216800EAD51040F0F000086133463A4696
:102070000B49204600F070F878B902E005F0FE0048
:1020800000E0E8B221680861054933463A46891FF5
:10209000204600F061F80028DCD00120F8BD0000E7
:1020A0000800010070B516460D4604460DE02046B6
:1020B000FFF793FF08B1012070BD681C05D0FEF743
:1020C00081FE801BA84207D835B120684069C04313
:1020D0004007ECD4002070BD002044F8300F2021D0
:1020E0006173A073216941F0200121612073E2E74F
:1020F0002DE9F0471E4690460D460446C1F30747BA
:10210000DDF8209008E0701C06D0FEF75BFEA0EB27
:102110000900B0420FD876B12068012F18D080692D
:1021200025EA00000004000C14D000214145EAD04B
:102130000020BDE8F087002044F8300F20216173B3
:10214000A073216941F02001216120730120F0E793
:102150004069E5E70121E9E72DE9F0479A46914614
:102160000E46044600254FF02008C1F3074725E03E
:1021700020684069C043400514D42068016841F4D8
:102180000071016021686FF480604861256384F804
:102190003D8084F83E50206C40F00400206484F8B8
:1021A0003C501FE0B9F1FF3F08D0FEF70BFEA0EB5B
:1021B0000A0149450CD8B9F1000F09D02068012F58
:1021C00013D0806926EA00000004000C0BD0CFE792
:1021D00044F8305F84F80D80A573206940F020003A
:1021E000206125730120BDE8F0874069EAE770B5FA
:1021F00016460D4604460DE02046FFF7EEFE08B1F8
:10220000012070BD681C05D0FEF7DCFD801BA842D4
:1022100007D835B120684069C0430006ECD40020DF
:1022200070BD002044F8300F20216173A073216934
:1022300041F0200121612073E2E7000042F21070BA
:10224000FEF7ACFCFEF746FA0125104C002600BF55
:1022500001F0E2FF6060021E14D00DA10D4800F0F5
:1022600001FD0C4800F01AFA0BA16068FDF795FF1C
:1022700000B925700AA16068FDF78FFF00B92670CC
:1022800001F0AAFF01F088FEE2E700001C00002038
:1022900025730000280800206F70656E00000000A4
:1022A000636C6F73650000002DE9F04186B0002477
:1022B00042480094019402940394816941F004011E
:1022C0008161816901F004010491816941F0080193
:1022D0008161816901F008010491816941F0100177
:1022E0008161816901F010010491816941F020014F
:1022F00081618069012200F02000314F5603049073
:1023000031463846FEF759FDDFF8B8800122114604
:102310004046FEF752FD012202214046FEF74DFDE8
:102320000125CDE900650295694638460395FEF71B
:1023300047FC0220CDE90005029569464046039519
:10234000FEF73EFC009501950295694640460395CF
:10235000FEF736FC2020CDE90005CDE902451A4DF7
:1023600069462846FEF72CFCCDE9006469464046E4
:102370000294FEF725FCA814CDE900046946404606
:102380000294FEF71DFC8020CDE900046946284632
:102390000294FEF715FC4020CDE90004694628466A
:1023A0000294FEF70DFC7000CDE90004694640463A
:1023B0000294FEF705FC06B0BDE8F0810010024073
:1023C00000100140000C0140000801400D4810B50C
:1023D0000B4901600C49416000214FF4804281604B
:1023E000C0E9031241618161C1610162FEF7F0FC45
:1023F000002803D0BDE81040FEF75EBB10BD000012
:102400000054004034000020A086010010B586B0C2
:1024100000241748009401940294039404941349EF
:10242000059401604721C0E9011442F20F71C0E92F
:1024300003148461FFF7A6F908B1FEF73DFB4FF4E2
:102440008050009069460A48FFF714FA08B1FEF779
:1024500033FB049404A906480594FFF75FF90028AC
:1024600001D0FEF729FB06B010BD000000040040BB
:10247000880000200C4810B50A4901604FF4E13192
:102480004160002181600C22C160C0E904128161B9
:10249000C161FFF74DFC002803D0BDE81040FEF7F6
:1024A0000BBB10BD003801409807002010B5104C40
:1024B0000E480C2120604FF4E13060600020A060E5
:1024C000E060C4E90401A061E0612046FFF730FC50
:1024D00008B1FEF7F1FA2068C16841F02001C1603F
:1024E0002068C16841F01001C16010BD0048004083
:1024F000E0070020FEE7FEE770B5002404F1B0001D
:10250000C0B200F001F9002000F0FEF8102000F049
:10251000FBF80025002000F009F96D1CEDB2802DBC
:10252000F8D3641CE4B2082CE8D370BD10B54FF4A6
:10253000FA70FEF733FBAE2000F0E6F8002000F062
:10254000E3F8102000F0E0F8402000F0DDF88120F2
:1025500000F0DAF8FF2000F0D7F8A12000F0D4F85E
:10256000C82000F0D1F8A62000F0CEF8A82000F096
:10257000CBF83F2000F0C8F8D32000F0C5F80020C9
:1025800000F0C2F8D52000F0BFF8802000F0BCF8C1
:10259000D92000F0B9F8F12000F0B6F8DA2000F008
:1025A000B3F8122000F0B0F8DB2000F0ADF84020C6
:1025B00000F0AAF8202000F0A7F8022000F0A4F80C
:1025C0008D2000F0A1F8142000F09EF8A42000F067
:1025D0009BF8A62000F098F8AF2000F095F8FFF7E0
:1025E0008BFF0021BDE810400846AFF3008010B516
:1025F0000446B031C8B200F087F8102040EA141049
:1026000000F082F804F00F00BDE8104040F0010037
:1026100000F07AB82DE9F041203A00240D468046BA
:10262000D6B27F2803D900204D1C8046EDB2102B76
:1026300029460FD0FFF7DBFF164906EB460001EBFA
:102640004005285D00F072F8641CE4B2062CF8D353
:10265000BDE8F081FFF7CBFF0F4F00BF04EB061082
:10266000385C00F063F8641CE4B2082CF6D36D1CEF
:10267000E9B24046FFF7BBFF5FF0000404EB061031
:102680003844007A00F052F8641CE4B2082CF5D308
:10269000DEE7000038420008604400082DE9F04100
:1026A000184C0025074625802E4638780A2823D066
:1026B0000D2817D0D8B120887F2803D925806088BD
:1026C000401C60806088072803D965802580FFF75B
:1026D00013FF3A78A17820780C23FFF79BFF20881E
:1026E00008302080761CF6B27F1C642EDDD3608813
:1026F000401C6080BDE8F08125806088401C6080BF
:10270000F0E70000180000201CB500218DF804102F
:102710008DF805004FF6FF700090022301AA782182
:102720000148FEF719FC1CBD340000201CB54021F7
:102730008DF804108DF805004FF6FF70009002230D
:1027400001AA78210148FEF707FC1CBD34000020D7
:102750007047704770B50F4C2088401C2080FEF7F2
:10276000BFFC208800260C4DB0F57A7F08D9268062
:1027700028884FF40051401C28800848FEF715FBBC
:102780002888B0F5967F03D105492E800120087076
:1027900070BD000000000020080000200010014073
:1027A0000A00002030B58FB028216846FDF7D1FC23
:1027B00014210AA8FDF7CDFC01210804CDE9001081
:1027C0000024029402250491CDE907504FF4E01053
:1027D00009906846FEF7FCFD08B172B6FEE70F20CF
:1027E000CDE90A054FF48060CDE90C4002210AA82A
:1027F0000E94FEF711FD002801D072B6FEE70FB06F
:1028000030BD70472DE9F0411548FFF7A2F8154E8D
:10281000154C4FF4FA783078002598B12088134F82
:10282000401C80B22080404502D9258035703D7023
:102830004FF400510E48FEF7B3FA18B925803570F1
:10284000012038700B480178002907D02188491CE5
:1028500089B22180414501D925800570BDE8F0810C
:102860008800002004000020020000200600002054
:10287000000C014005000020F0B50268164B174C13
:10288000174D4FF08047984205D0B84203D0A04280
:1028900001D0A84203D122F070064A683243984220
:1028A00005D0B84203D0A04201D0A84203D122F4FF
:1028B0004074CA6822434C6922F0800222430260BD
:1028C0008A68C2620A688262984201D1096901631A
:1028D00001214161F0BD0000002C014000040040D6
:1028E0000008004010B5846842EA032224F47F44C3
:1028F0000A432243826010BD826822F070020A43BC
:1029000042F007018160704710B5036A046A24F041
:1029100001040462846924F0F00444EA021423F000
:102920000A020A438461026210BD10B5036A046A98
:1029300024F010040462846923F0A00324F470449A
:1029400044EA023243EA01118261016210BD10B50E
:10295000406A0021C185C184FFF7B3F810BD01684A
:102960000C3151E8002F22F4907241E80023002B33
:10297000F5D10168143151E8002F22F0010241E83D
:102980000023002BF5D1016B012909D101680C311D
:1029900051E8002F22F0100241E80023002BF5D16E
:1029A000202180F8421000210163704708B590F89B
:1029B0004210222901D0022008BD82684FF48053C2
:1029C0009A4201D1016921B1816A9A421BD04AB170
:1029D0000AE00268816A5268C2F308020A80816ACA
:1029E000891C08E0026972B10268526802F07F0235
:1029F0000A70816A491C8162C18D491E0904090C53
:102A0000C18503D01BE002685268F1E70168CA681B
:102A100022F02002CA600168CA6822F48072CA608B
:102A200001684A6922F001024A61202180F84210BF
:102A300000214163026B012A03D0FFF727FA00202F
:102A400008BD016301680C3151E8002F22F010022B
:102A500041E80023002BF5D101680A68D20602D5AF
:102A60000A6849680091818DFFF72AF8E7E70000BE
:102A700070B5044600680169E26821F440511143D1
:102A800001612169A0680843616908432168CA6837
:102A900041F20C639A430243CA6020684169A2690B
:102AA00021F44071114341611E492068884202D1DE
:102AB000FEF758FC01E0FEF745FC00EBC00101EB1E
:102AC0000012606864218000B2FBF0F3B3FBF1F305
:102AD0006FF018067343B2FBF0F5B2FBF0F605EBAE
:102AE0008305322303EB0515B5FBF1F5B6FBF1F6D3
:102AF00005F0F00505EB0615B2FBF0F6B2FBF0F0C1
:102B0000B0FBF1F06FF01802504306EB800003EBCE
:102B10000010B0FBF1F0216800F00F00284488603D
:102B200070BD00000038014081628285C2850021AD
:102B30004164222180F84210016921B10168CA680C
:102B400042F48072CA6001684A6942F001024A6137
:102B50000068C16841F02001C160002070472DE984
:102B6000F041984617460E460446069D27E0681C2D
:102B700025D02DB1FEF726F9A0EB0800A8421ED9FA
:102B800020680C3050E8001F21F4D07140E800129A
:102B9000002AF5D12068143050E8001F21F001010F
:102BA00040E80012002AF5D1202084F8410084F882
:102BB0004200002084F840000320BDE8F081206836
:102BC000006836EA000004D00020B842CFD00020D0
:102BD000F3E70120F9E7000008B50648FEF772FFA9
:102BE000044800680168C90602D501684068009081
:102BF00008BD00009807002008B50748FEF762FFEF
:102C0000054800680168C90605D5016840680349A0
:102C100000900120087008BDE00700200C00002093
:102C2000FEE7000010B5064C2078012806D101F01F
:102C30000BF808B1FDF728FE0020207010BD000041
:102C40000A0000200FB4054B10B503A9044A0298EE
:102C500000F010F910BC5DF814FB0000A53E000860
:102C6000140000200FB4084B10B504A902AA039861
:102C700000F000F9044602A9002000F092FC204672
:102C800010BC5DF814FB0000A335000837B51446EE
:102C90000846064B6A46214600F0ECF804466946B1
:102CA000002000F07EFC20463EBD0000A335000859
:102CB0000907090E002804DB00F1E02080F8001469
:102CC000704700F00F0000F1E02080F8141D7047FD
:102CD00002E008C8121F08C1002AFAD170477047E5
:102CE000002001E001C1121F002AFBD17047000043
:102CF0002DE9FF5F82B00021DDE90430020DDDF82F
:102D000040B0034318D044F61050A2F2FF324243C1
:102D10001514119801281FD0A5EB0B00401C5FEA89
:102D2000000A4FF000064E4FDFF83891B04650468B
:102D300015D5CAF1000413E0119801244AA3012813
:102D400001D16FEA0B010298119AC0E90031C0E984
:102D5000024206B0BDE8F09FCBF10000DFE7044679
:102D60000021404A491842EB0450CDE9001012E01E
:102D7000E00707D032463B4640464946FDF709FB8F
:102D80008046894632463B4610461946FDF701FB10
:102D900006460F466410002CEAD1DDE90401DDE9A6
:102DA0000023BAF1000F06DAFDF7F3FA42464B466C
:102DB000FDF7EFFA05E0FDF75EFB42464B46FDF7F7
:102DC0005AFB04460E460022284BFDF7DBFB03D8D6
:102DD0004FF0FF30014607E00022254B20463146E8
:102DE000FDF730FAFDF7B6FB102409E0002C0ADBF2
:102DF0000A220023FDF7F5F9039B30321A55641EB1
:102E000050EA0102F2D1641C039AC4F11103144484
:102E1000119A012A03D0012208430DD10AE0084388
:102E200004D000204FF0110B119072E7A3EB0B05BB
:102E30006D1E0DE05B4504DD4FF0000205F101055C
:102E400004E003DA4FF00002A5F10105002AECD0FE
:102E500002981199C0E90231C0E9004579E7000004
:102E6000000014400000F03F300000000000F0437C
:102E70000000E03F2DE9FF4F95B09B46894606468E
:102E800000250FE2252877D100242746F84A0121A2
:102E9000059400E0044316F8013F203B01FA03F0DB
:102EA0001042F7D130782A2811D06FF02F033078F4
:102EB000A0F13002092A16D8059A44F0020402EB68
:102EC000820203EB42021044761C0590EFE759F8AA
:102ED000042B0592002A03DA504244F40054059072
:102EE00044F00204761C30782E2816D116F8010F13
:102EF00044F004042A280DD06FF02F023078A0F19E
:102F00003003092B09D807EB870302EB4303C718EB
:102F1000761CF3E759F8047B761C30786C280FD0C8
:102F200006DC4C2817D068280DD06A2814D104E09C
:102F3000742810D07A280FD10DE044F400140AE070
:102F400044F4801401E044F440147278824202D1C7
:102F500004F58014761C761C307866280BD013DCC0
:102F6000582877D009DC002875D04528F6D04628A7
:102F7000F4D047281AD19DE118E0632835D06428A1
:102F800079D0652812D195E1702873D008DC6728C4
:102F9000F1D069286FD06E280DD06F2806D1B5E02A
:102FA00073282CD0752875D0782874D05A46179974
:102FB00090476D1C75E1C4F30250022809D0032824
:102FC0000DD0D9F8001004280DD00D6009F10409C6
:102FD00067E1D9F80010EA17C1E90052F6E7D9F81D
:102FE00000100D80F2E70D70F0E719F8041B8DF862
:102FF000001000208DF80100EA46012003E059F896
:1030000004AB4FF0FF3061074FF0000102D40DE038
:1030100008F101018846B9420FDA8045F8DB1AF859
:1030200008100029F4D108E008F101018846814226
:10303000FADB1AF808100029F6D105985B46A0EBD8
:10304000080721463846179A00F094FA284400EB06
:10305000080507E04DE029E10DE01AF8010B5A469A
:1030600017999047B8F10108F7D25B4621463846D8
:10307000179A13E142E00A220092C4F302524FF081
:10308000000A022A08D059F804CB032A4FEAEC714F
:103090000AD00DE029E02AE009F1070121F007023A
:1030A000F2E802C1914609E00FFA8CFC4FEAEC719C
:1030B000042A03D14FFA8CFC4FEAEC71002907DA9D
:1030C0000A460021DCF1000C61EB02012D2202E036
:1030D000220504D52B228DF80420012203E0E2070B
:1030E00001D02022F7E7904659E00A2102E01022A1
:1030F0000DE010214FF0000A00910BE010224FF07C
:10310000000A44F004040827009203E008224FF06C
:10311000000A0092C4F30252022A05D059F804CBE7
:103120000021032A08D009E009F1070121F0070274
:10313000F2E802C1914605E01FFA8CFC042A01D195
:103140000CF0FF0C4FF00008220728D5702806D09D
:10315000009B83F0100353EA0A0305D00EE04022DF
:103160008DF80420012208E05CEA010206D030223A
:103170008DF804208DF8050002229046009B83F014
:10318000080353EA0A030AD15CEA010201D162078B
:1031900005D530228DF804204FF001087F1E5828F5
:1031A00004D034A003900EA802900DE036A0F9E7F9
:1031B00053466046009AFDF714F884460398825CF3
:1031C0000298401E029002705CEA0100F0D1029861
:1031D00006A9081A00F1200A600702D524F48034F9
:1031E00000E00127574502DDA7EB0A0000E00020C0
:1031F00000EB0A01009005984144401A0590E00355
:1032000006D45B462146179A059800F0B3F90544A9
:10321000002706E001A85A46C05D179990476D1C2B
:103220007F1C4745F6DBE0030CD55B462146179A29
:10323000059800F09FF9054404E030205A4617999C
:1032400090476D1C0099481E00900029F5DC08E0AD
:10325000029802995A460078491C029117999047A2
:103260006D1CBAF10001AAF1010AF1DC65E1000070
:10327000092801003031323334353637383961624C
:103280006364656600000000303132333435363710
:1032900038394142434445460000000000F058F9E7
:1032A0000544761C307800287FF4ECAD19B0284630
:1032B000BDE8F08F620700D4062709F1070222F06B
:1032C000070CFCE80223E14603F000485FEA080C23
:1032D00002D00FF2702C0DE05FEA045C02D50FF211
:1032E000682C07E05FEAC47C02D00FF2602C01E09A
:1032F000AFF2700C4FF0FF3823F00043CDF850C010
:1033000065280CD006DC452809D046281DD0472862
:103310003DD13DE0662818D067287ED138E00021F5
:10332000112F01DB112000E0781CCDE9000106A976
:103330000EA8FFF7DDFCDDE90F010E9A03910021D5
:10334000009207F1010A04914DE04FF00040009710
:10335000CDE9011006A90EA8FFF7CAFCDDE90F02AE
:1033600003920E9B11990022DDF80CA000930492A9
:1033700011B9791C00EB010AB7EB0A0004D4C0F1C3
:10338000FF3007F1010A0490AAEB0700019044E026
:10339000012F00DA01270021112F01DD112000E0AB
:1033A0003846CDE9000106A90EA8FFF7A1FCDDE92A
:1033B0000F010E9A0391002104910092BA46210751
:1033C0000CD40399514500DA8A46BAF1010F05DDA4
:1033D000009AAAF10101515C302908D0B84202DA02
:1033E00010F1040F06DA0121CDE9011015E0AAF170
:1033F0000101E9E7002805DC049901440491AAEBE6
:10340000000102E0411C514500DD8A460499401A42
:10341000401C01904FF000400290200704D4019816
:10342000504501DBCDF8048000208DF84F00029854
:103430000DF14F07B0F1004F25D02B200E900298D0
:103440004FF0020800280CDA404202902D200E9026
:1034500007E00A210298FCF7AEFE3031029007F82F
:10346000011DB8F10001A8F10108F2DC0298002862
:10347000EFD1791E0E980870307800F0200040F0EF
:10348000450007F8020D12A8C01B00F107081498A8
:10349000007800B1012000EB0A01019801EBE07116
:1034A00005984144401A401E0590E00306D45B464F
:1034B0002146179A059800F05DF8054414980078A5
:1034C00018B15A46179990476D1CE00324D55B4606
:1034D0002146179A059800F04DF805441CE0049821
:1034E000002807DBDDE90301884203DD0098405C2A
:1034F000179901E0179930205A469047049805F132
:103500000105401C04900198401E019004D12E201A
:103510005A46179990476D1CBAF10001AAF1010AA9
:10352000DDDC05E017F8010B5A46179990476D1C32
:10353000B8F10001A8F10108F4DC5B462146179AB6
:103540000598ABE62D0000002B00000020000000D5
:103550002DE9F041044600251E461746880404D490
:1035600005E039462020B0476D1C641EF9D5284679
:10357000BDE8F0812DE9F041044600251E46904645
:10358000C80301D5302700E02027880404D505E0D2
:1035900041463846B0476D1C641EF9D52846BDE843
:1035A000F0810A68531C0B601070704770B50024DE
:1035B0004FF47A752A46064906A000F0F7FA00286B
:1035C00004D0641CE4B20A2CF4D3012070BD0000C6
:1035D000A43600084154000000B591B0024607A18E
:1035E0006846FFF73FFB42F210720849684600F058
:1035F000DDFA002800D0012011B000BD41542B534A
:1036000056524E554D3D222573220000A436000827
:1036100000B591B0024607A16846FFF723FB4FF4BF
:103620007A720849684600F0C1FA002800D00120EB
:1036300011B000BD41542B5356524B45593D2225E4
:1036400073220000A436000810B500F0C5FD0CA0E0
:1036500000F0CAFD4FF47A7422460AA1002000F05F
:10366000A5FA58B900F0B8FD06A000F0BDFD22464D
:1036700005A1002000F09AFA002800D0012010BD1A
:103680002B2B2B0061746B004F4B000010B54FF4D7
:103690007A7204A104A000F089FA002800D0012069
:1036A00010BD00004F4B000041544F0000B58DB0DD
:1036B00020B1012804D003200DB000BD08A200E015
:1036C00008A209A16846FFF7CDFA4FF47A720AA161
:1036D000684600F06BFA0028EED00120ECE700000D
:1036E0004F4E00004F46460041542B485254454E21
:1036F0003D222573220000004F4B000000B599B019
:1037000007A16846FFF7AEFA4FF47A720EA1684639
:1037100000F04CFA002800D0012019B000BD0000D4
:1037200041542B48525444543D22343134433439AB
:103730003435344535343435344232443438353216
:1037400035343434353422004F4B000000B58DB091
:1037500007A208A16846FFF785FA4FF47A72094973
:10376000684600F023FA002800D001200DB000BD0B
:103770003132300041542B485254544D3D22257370
:1037800022000000A436000800B591B020B1012845
:1037900006D0032011B000BD13460A4608A102E07E
:1037A00013460A460DA16846FFF75CFA4FF47A7299
:1037B00011A1684600F0FAF90028EBD00120E9E7F2
:1037C00041542B4C494E4B313D22544350222C2224
:1037D0002573222C222573220000000041542B4C1B
:1037E000494E4B313D22554450222C222573222C28
:1037F00022257322000000004F4B000000B58DB061
:10380000052207A16846FFF72DFA4FF47A7208499E
:10381000684600F0CBF9002800D001200DB000BDB3
:1038200041542B4C494E4B31544D3D2225642200CE
:10383000A436000800B58DB020B1012804D00320C3
:103840000DB000BD08A200E008A209A16846FFF77C
:1038500009FA4FF47A720AA1684600F0A7F9002825
:10386000EED00120ECE700004F4E00004F4646002E
:1038700041542B4C494E4B31454E3D22257322007D
:103880004F4B000000B58DB020B1012804D00320BB
:103890000DB000BD08A200E009A20BA16846FFF729
:1038A000E1F94FF47A720CA1684600F07FF9002824
:1038B000EED00120ECE700004C4F4E470000000026
:1038C00053484F525400000041542B4C494E4B3149
:1038D0004D443D22257322004F4B000000B58DB0B2
:1038E00020B1012804D003200DB000BD08A200E0E3
:1038F00008A209A16846FFF7B5F94FF47A720AA148
:10390000684600F053F90028EED00120ECE70000F3
:103910004F4E00004F46460041542B4C494E4B320F
:10392000454E3D22257322004F4B000000B58DB05F
:1039300020B1012804D003200DB000BD08A200E092
:1039400008A209A16846FFF78DF94FF47A720AA11F
:10395000684600F02BF90028EED00120ECE70000CB
:103960004F4E00004F46460041542B4C494E4B33BE
:10397000454E3D22257322004F4B000000B58DB00F
:1039800020B1012804D003200DB000BD08A200E042
:1039900008A209A16846FFF765F94FF47A720AA1F7
:1039A000684600F003F90028EED00120ECE70000A3
:1039B0004F4E00004F46460041542B4C494E4B346D
:1039C000454E3D22257322004F4B000000B589B0C3
:1039D000072820D2DFE800F004061517191B1D0088
:1039E0000EA100E011A16846FFF73CF94FF47A728E
:1039F00012A1684600F0DAF8002800D0012009B0D2
:103A000000BD0FA1EFE712A1EDE716A1EBE71AA1A8
:103A1000E9E71EA1E7E70320F1E7000041542B5737
:103A20004F524B3D224E45542200000041542B572B
:103A30004F524B3D22485454502200004F4B00003F
:103A400041542B574F524B3D224D515454220000AC
:103A500041542B574F524B3D22414C4959554E2210
:103A60000000000041542B574F524B3D224F4E4512
:103A70004E4554220000000041542B574F524B3DFD
:103A800022424149445559554E22000041542B577A
:103A90004F524B3D22524E444953220000B58DB047
:103AA00020B1012804D003200DB000BD08A200E021
:103AB00008A209A16846FFF7D5F84FF47A720AA167
:103AC000684600F073F80028EED00120ECE7000013
:103AD0004F4E00004F46460041542B524547454E3D
:103AE0003D222573220000004F4B000000B599B025
:103AF00007A16846FFF7B6F84FF47A720EA1684640
:103B000000F054F8002800D0012019B000BD0000DA
:103B100041542B52454744543D22343134433439C7
:103B20003435344535343435344232443532343525
:103B300034373434353422004F4B000000B599B08F
:103B400007A16846FFF78EF84FF47A720849684675
:103B500000F02CF8002800D0012019B000BD0000B2
:103B600041542B52454754503D22494D454922006E
:103B7000A436000800B599B007A16846FFF772F8AF
:103B80004FF47A720849684600F010F8002800D017
:103B9000012019B000BD000041542B5245474D444F
:103BA0003D224C494E4B2200A436000870B5144605
:103BB0000E46050005D000F00FFB29460CA000F0D2
:103BC00013FB46B13CB100BF00F026FB38B13146D3
:103BD000FCF7CAFA08B1002070BD00F0FDFA012020
:103BE000641EFCF7DBFF002CEED1022070BD00004C
:103BF00025730D0A0000000000B58DB020B101282A
:103C000004D003200DB000BD08A200E008A209A165
:103C10006846FFF727F84FF47A720AA16846FFF763
:103C2000C5FF0028EED00120ECE700004F4E000059
:103C30004F46460041542B535652454E3D22257364
:103C4000220000004F4B000070B500244FF4FA75BD
:103C50002A4606A106A000F0C1F8002804D0641C82
:103C6000E4B20A2CF4D3012070BD00004F4B0000D9
:103C70004154000010B54FF4FA7218B1012804D075
:103C8000032010BD05A106A001E004A106A000F0DC
:103C9000A5F80028F5D0012010BD00004F4B000012
:103CA00041544530000000004154453100000000FF
:103CB00010B590B00B4602460AA16846FEF7D2FF47
:103CC00042F210720DA1684600F088F804460146E1
:103CD0000EA0FEF7B7FF14B1012010B010BD0020F8
:103CE000FBE7000041542B41544B434C4453544197
:103CF0003D222573222C222573220000434C4F5570
:103D00004420434F4E4E4543544544002564000033
:103D100070B505464FF4FA720CA10DA000F05EF8E4
:103D200008B1012070BD00F077FA0CA1FCF71CFA75
:103D300004460AA1401CFCF717FA00210170621C1E
:103D400007A12846FEF78EFF002070BD4F4B0000F4
:103D500041542B434946535200000000220000000A
:103D60002573000000B591B00B46024607A16846D6
:103D7000FEF778FF42F2107209A1684600F02EF8B3
:103D8000002800D0012011B000BD000041542B4399
:103D9000574A41503D222573222C222573220000D0
:103DA0005749464920474F542049500010B50A4C06
:103DB000002220212046FDF700F86420FCF7EEFEEB
:103DC000012220212046FCF7F8FFBDE810404FF407
:103DD000FA70FCF7E3BE00000008014070B514461D
:103DE0000D46064600F0F8F931460CA000F0FCF94B
:103DF0003DB134B100F010FA38B12946FCF7B4F9FE
:103E000008B1002070BD00F0E7F90120641EFCF746
:103E1000C5FE002CEED1022070BD000025730D0AF6
:103E20000000000010B54FF4FA72012805D00228F6
:103E300006D003280CD0032010BD07A107A001E085
:103E400005A109A0FFF7CAFF0028F5D0012010BD89
:103E500001A108A0F6E700004F4B000041542B439E
:103E6000574D4F44453D310041542B43574D4F442E
:103E7000453D320041542B43574D4F44453D33009F
:103E800010B54FF4FA72044904A0FFF7A7FF002809
:103E900000D0012010BD00006C3C000841542B52A2
:103EA0005354000004490A685206FCD5024AC1B2C4
:103EB000121D1160704700000038014010B5FDF779
:103EC00017F9FEF76FFCFEF7EFF9FEF79FFA1D48B2
:103ED000FDF7A4FCFEF7CEFA01221B491B48FDF7B3
:103EE000C7FF1BA0FEF7AEFEFEF7E0FA01221B495A
:103EF0001B48FDF7BDFF4FF0FF330B2219A11848F7
:103F0000FEF71CF8FEF762FAFEF710FB18A0FEF7AA
:103F1000C5FB4FF480411948FCF742FF00B1012076
:103F20001749087038B120B116A0FEF7B7FBFCF7AF
:103F300091FD002010BD16A0FEF7B0FBFEF77EF944
:103F4000F7E70000880000201200002098070020FA
:103F500055534152543120496E69740013000020BA
:103F6000E007002055534152543320496E697400D4
:103F70004F4C45445F4F4B2100000000000C0140B6
:103F800007000020576966695F4D6F646500000097
:103F900034475F4D6F6465002DE9F05F774C207802
:103FA000012806D0FEF73EFEBDE8F05F0A20FCF7D0
:103FB000F5BD73A0FEF772FB754D4FF4FA66AF14B2
:103FC0000FE0002202212846FCF7F7FE3046FCF7FE
:103FD000E5FD012202212846FCF7EFFE3046FCF702
:103FE000DDFD39462846FCF7DBFE0028E9D06948AC
:103FF0004FF00108814680F800806420FCF7CEFD78
:1040000099F800000028F8D1DFF88CB14FF0000AD1
:104010004FF47A799BF80000002867D05FA0FEF784
:104020003DFB05E04FF47A70FCF7B8FDFEF7FAFDB2
:104030004FF400512846FCF7B3FE0028F2D15A484D
:10404000C14680F8008080466420FCF7A7FD98F800
:1040500000000028F8D155A0FEF720FB0FE0002259
:1040600001212846FCF7A9FE3046FCF797FD012206
:1040700011462846FCF7A1FE3046FCF78FFD394675
:104080002846FCF78DFE0028E9D155464FF47A7694
:10409000607828B33346092244A14748FDF74EFF14
:1040A00000F0BAF86060021E14D044A14448FEF744
:1040B000D9FD4348FEF7F2FA42A16068FCF76DF8BB
:1040C00030B9334602223FA13B48FDF737FF657008
:1040D00000F082F83046FCF761FDFEF7A3FDD7E75C
:1040E00084F801908BF8005025705DE736A0FEF74C
:1040F000D5FA0FE0002201212846FCF75EFE30468B
:10410000FCF74CFD012211462846FCF756FE3046CE
:10411000FCF744FD39462846FCF742FE0028E9D169
:1041200056464D46607828B32B46062228A12248E1
:10413000FDF704FF00F070F86060021E14D01FA1AC
:104140001F48FEF78FFD1E48FEF7A8FA1DA1606804
:10415000FCF723F830B92B4602221AA11648FDF7C6
:10416000EDFE667000F038F82846FCF717FDFEF704
:1041700059FDD7E784F80180267015E71C00002060
:104180004F70656E20546865204C6F636B000000B3
:10419000000C0140040000200600002053746F70E2
:1041A000204361720000000005000020436172207E
:1041B0004C65617665000000E00700202573000073
:1041C000280800206F6B00004E4F204361720000F2
:1041D0004E3020436172000002480021818001704E
:1041E000704700000C0000200FB40A4810B503AA65
:1041F0000299FEF74BFD0748FBF7C8FF054982B25D
:104200004FF0FF3301F51270FDF798FE10BC5DF81A
:1042100014FB00009805002005480178012901D011
:1042200000207047034A80880021115410467047CF
:104230000C00002098010020000000000000000099
:10424000002F000000000700070000147F147F14F7
:1042500000242A7F2A12006264081323003649557D
:10426000225000000503000000001C224100000055
:1042700041221C000014083E08140008083E0808EB
:10428000000000A060000008080808080000606046
:104290000000002010080402003E5149453E000085
:1042A000427F4000004261514946002141454B3167
:1042B000001814127F10002745454539003C4A4933
:1042C00049300001710905030036494949360006A5
:1042D0004949291E0000363600000000563600000D
:1042E0000008142241000014141414140000412288
:1042F000140800020151090600324959513E007C60
:104300001211127C007F49494936003E4141412249
:10431000007F4141221C007F49494941007F090932
:104320000901003E4149497A007F0808087F0000E2
:10433000417F4100002040413F01007F081422419D
:10434000007F40404040007F020C027F007F040855
:10435000107F003E4141413E007F09090906003EB1
:104360004151215E007F09192946004649494931DA
:104370000001017F0101003F4040403F001F2040FD
:10438000201F003F4038403F0063140814630007BB
:104390000870080700615149454300007F41410012
:1043A00000552A552A55000041417F0000040201B2
:1043B0000204004040404040000001020400002090
:1043C00054545478007F48444438003844444420CE
:1043D00000384444487F00385454541800087E097B
:1043E00001020018A4A4A47C007F08040478000043
:1043F000447D4000004080847D00007F1028440000
:104400000000417F4000007C04180478007C080410
:10441000047800384444443800FC2424241800184C
:10442000242418FC007C0804040800485454542038
:1044300000043F444020003C4040207C001C2040C1
:10444000201C003C4030403C004428102844001C04
:10445000A0A0A07C004464544C44141414141414FC
:10446000000000000000000000000000000000004C
:10447000000000F8000000000000003330000000E1
:1044800000100C06100C06000000000000000000E8
:1044900040C07840C0784000043F04043F0404005A
:1044A000007088FC08300000001820FF211E00006A
:1044B000F008F000E018000000211C031E211E007F
:1044C00000F00888700000001E2123241927211005
:1044D00010160E00000000000000000000000000A8
:1044E000000000E01804020000000007182040004F
:1044F00000020418E000000000402018070000003F
:10450000404080F0804040000202010F01020200A2
:10451000000000F0000000000101011F0101010086
:10452000000000000000000080B0700000000000EB
:104530000000000000000000000101010101010174
:10454000000000000000000000303000000000000B
:1045500000000000806018040060180601000000E0
:1045600000E010080810E000000F102020100F00DD
:10457000001010F8000000000020203F2020000064
:1045800000700808088870000030282422213000BC
:1045900000300888884830000018202020110E00C4
:1045A0000000C02010F8000000070424243F24006D
:1045B00000F80888880808000019212020110E0042
:1045C00000E0108888180000000F112020110E0054
:1045D00000380808C83808000000003F000000004C
:1045E0000070880808887000001C222121221C000D
:1045F00000E010080810E0000000312222110F0036
:10460000000000C0C00000000000003030000000CA
:10461000000000800000000000008060000000003A
:104620000000804020100800000102040810200053
:10463000404040404040400004040404040404009E
:104640000008102040800000002010080402010033
:10465000007048080808F000000000303601000033
:10466000C030C828E810E0000718272423140B00E6
:104670000000C038E0000000203C23020227382060
:1046800008F8888888700000203F202020110E0044
:10469000C03008080808380007182020201008003B
:1046A00008F808080810E000203F202020100F0024
:1046B00008F88888E8081000203F202023201800F0
:1046C00008F88888E8081000203F20000300000058
:1046D000C03008080838000007182020221E0200F9
:1046E00008F808000008F808203F210101213F20B8
:1046F000000808F8080800000020203F20200000E3
:1047000000000808F8080800C08080807F000000D2
:1047100008F888C028180800203F2001263820000B
:1047200008F8080000000000203F20202020300072
:1047300008F8F800F8F80800203F003F003F20008C
:1047400008F830C00008F808203F200007183F0094
:10475000E01008080810E0000F10202020100F00C3
:1047600008F808080808F000203F210101010000B6
:10477000E01008080810E0000F18242438504F00FB
:1047800008F8888888887000203F2000030C3020BB
:1047900000708808080838000038202121221C00F9
:1047A000180808F8080818000000203F2000000042
:1047B00008F808000008F808001F202020201F002B
:1047C0000878880000C83808000007380E0100008B
:1047D000F80800F80008F800033C0700073C030055
:1047E000081868808068180820302C03032C3020BB
:1047F0000838C800C83808000000203F200000002A
:1048000010080808C8380800203826212020180081
:10481000000000FE020202000000007F4040400055
:10482000000C30C000000000000000010638C0008D
:1048300000020202FE000000004040407F00000035
:10484000000004020202040000000000000000005A
:104850000000000000000000808080808080808058
:104860000002020400000000000000000000000040
:1048700000008080808000000019242222223F2036
:1048800008F8008080000000003F112020110E0079
:104890000000008080800000000E11202020110008
:1048A000000000808088F800000E112020103F20BA
:1048B0000000808080800000001F2222222213003E
:1048C000008080F0888888180020203F2020000089
:1048D0000000808080808000006B9494949360003E
:1048E00008F8008080800000203F210000203F2049
:1048F00000809898000000000020203F2020000049
:10490000000000809898000000C08080807F000038
:1049100008F8000080808000203F24022D30200015
:10492000000808F8000000000020203F20200000C0
:104930008080808080808000203F20003F20003FDA
:104940008080008080800000203F210000203F20E8
:104950000000808080800000001F202020201F0099
:10496000808000808000000080FFA12020110E00C8
:104970000000008080808000000E112020A0FF80B9
:10498000808080008080800020203F212000010066
:1049900000008080808080000033242424241900BB
:1049A000008080E0808000000000001F20200000C8
:1049B0008080000000808000001F202020103F2009
:1049C000808080000080808000010E300806010099
:1049D00080800080008080800F300C030C300F003E
:1049E00000808000808080000020312E0E31200069
:1049F000808080000080808080818E701806010099
:104A000000808080808080000021302C22213000B6
:104A100000000000807C020200000000003F4040D7
:104A200000000000FF00000000000000FF00000088
:104A30000002027C800000000040403F00000000B7
:104A40000006010102020404000000000000000052
:104A5000010202030405060708090A0B0C0D0E0FDC
:104A6000101000000000000000000102030406070F
:104A70000809000000000102030400009C4A00082D
:104A80000000002034000000D02C0008D04A0008AC
:104A900034000020340C0000E02C0008000000006E
:104AA0000000000000000000000000000000000006
:104AB00000000000000000000001000000000000F5
:104AC0000100000010000000000000000024F400BD
:04000005080000ED02
:00000001FF
