:020000040800F2
:10000000880E0020350200086D3A0008053500080A
:10001000693A0008BD1B0008D94300080000000031
:10002000000000000000000000000000453D000846
:10003000C11B000800000000193D0008493D0008F0
:100040004F0200084F0200084F0200084F0200084C
:100050004F0200084F0200084F0200084F0200083C
:100060004F0200084F0200084F0200084F0200082C
:100070004F0200084F0200084F0200084F0200081C
:100080004F0200084F0200084F0200084F0200080C
:100090004F0200084F0200084F0200084F020008FC
:1000A0004F0200084F0200084F0200084F020008EC
:1000B0004F020008113E00084F0200084F020008DE
:1000C0004F0200084F0200084F0200084F020008CC
:1000D0004F020008594300084F02000899430008E6
:1000E0004F0200084F0200084F02000800F002F81B
:1000F00000F090F80AA090E8000C82448344AAF132
:100100000107DA4501D100F085F8AFF2090EBAE82F
:100110000F0013F0010F18BFFB1A43F0010318473B
:10012000F84D0000184E0000103A24BF78C878C17E
:10013000FAD8520724BF30C830C144BF04680C60ED
:10014000704700000023002400250026103A28BF35
:1001500078C1FBD8520728BF30C148BF0B60704739
:100160006E2900F0ED82702900F05784662904F0B2
:100170002F82652904F02C82672904F029826129E5
:1001800004F0288203681B0A28BF41F08001692916
:1001900000F0BA80642900F0B780752900F0B480BF
:1001A0006F2900F0E483782900F02384E92900F026
:1001B0007F83E42900F07C83F52900F07983EF291F
:1001C00000F0E183F82900F022840368DB0928BFEE
:1001D00041F08001632900F0EE82732900F0F38280
:1001E000E32901F00180F32901F006800020704727
:1001F0001FB501F057F804000020002104F0D2F9E7
:10020000401C60600020002104F0B6F9E0601FBDD2
:1002100010B510BD01F018F81146FFF7E9FF04F022
:1002200025F901F0F5F803B4FFF7F2FF03BC04F081
:100230000CF900000948804709480047FEE7FEE73F
:10024000FEE7FEE7FEE7FEE7FEE7FEE7FEE7FEE786
:1002500004480549054A064B704700000F3E000858
:10026000ED00000888080020880E0020880A002081
:10027000880A0020704700001CB50C46064B7B44E2
:1002800069460090204600F074FA04460020694652
:1002900000F082FA20461CBD170500000FB4044987
:1002A00010B503AA029800F093FA10BC5DF814FB95
:1002B0000C00002070B50C460546012A05D02878B0
:1002C000800600D5EA69002302E0012305E05B1CFB
:1002D000934202D2E05C0028F9D1A869E618C01A5E
:1002E000A861286A18442862284600F097F904E0BB
:1002F000D5E9012114F8010B9047B442F8D3284600
:1003000000F0A2F970BD00002DE9F041064600247E
:1003100010687529314616A510D000F0A6F90028FE
:1003200002DA404213A507E031688A0701D512A519
:1003300002E0490704D511A5012401E000F09EF96F
:1003400000210A2206F1240709E0B0FBF2FCB0FB11
:10035000F2F302FB1C00303078541846491C002888
:10036000F3D123462A463046BDE8F04100F08FB96C
:10037000000000002D0000002B0000002000000005
:100380002DE9F05F894604464FF0000ADFF874B1AA
:10039000FB44C0F820A02046E1688847002874D0BC
:1003A000252806D0D4E901219047206A401C20620C
:1003B000F1E700265F462046E16888472028054689
:1003C00007DB312D05D2781910F8200C08B106434F
:1003D000F1E7B00701D526F00406C4F81CA00027F9
:1003E000C4F818A02A2D09D0284604F027F838B3FD
:1003F00004EB8708303DC8F8185019E059F8041B81
:10040000204604EB87029161E1688847012F054689
:1004100018D1E069002820DA26F020061DE0D8F87F
:10042000180000EB800005EB40003038C8F81800D9
:100430002046E1688847054604F000F80028EED120
:10044000012F0AD02E2D08D12046E16888477F1C55
:100450000546022F46F02006C4DBA069002803DA17
:10046000404246F00106A061F00701D026F01006D8
:100470006C2D0BD0682D09D04C2D39D06A2D35D07C
:10048000742D35D07A2D33D016E038E0E1682F4650
:1004900020468847B842054609D16C2F26D04FF434
:1004A0008060E168064320468847054604E06C2FDB
:1004B0001AD04FF4807006430DB3A5F141001928FE
:1004C00002D8203546F400664A4629462046266072
:1004D0004E46FFF745FE80B101280BD0F61D26F0F1
:1004E000070000F1080956E74020E4E78020D8E73C
:1004F0000020D6E706F104094DE7284652E7206AB6
:10050000BDE8F09F864A000010B5431C02E010F8D9
:10051000011B71B18107FAD14FF0013202C88C1A68
:100520008C4314EAC211F9D0C01A0A0603D0C01EC7
:1005300010BDC01A10BD0A0401D0801E10BD0902F2
:10054000FCD0401E10BD4FF0000200B5134694468B
:100550009646203922BFA0E80C50A0E80C50B1F11B
:100560002001BFF4F7AF090728BFA0E80C5048BF2F
:100570000CC05DF804EB890028BF40F8042B08BFCD
:10058000704748BF20F8022B11F0804F18BF00F8C9
:10059000012B70474FF0013C50F8042B51F8043BFD
:1005A0009A4221D1A2EB0C03934313EACC1317D147
:1005B00050F8042B51F8043B9A4215D1A2EB0C03DE
:1005C000934313EACC130BD150F8042B51F8043B9E
:1005D0009A4209D1A2EB0C03934313EACC13DBD06C
:1005E0004FF00000704700BFD01A01BAB1FA81F194
:1005F00001F0180122FA01F0CB40C1F12001DBB279
:10060000C0B2C01A2CFA01F3D11A914311EAC311F6
:10061000E6D17047704770477047704770B5044621
:1006200085690068C10601D5302600E02026C00794
:1006300007D070BDD4E9012130469047206A401CA4
:1006400020626D1EF6D570BD70B5044685690078D0
:10065000C00707D170BDD4E9012120209047206A4E
:10066000401C20626D1EF6D570BD09684A0501D593
:1006700040B27047C905FCD500B2704709684A0509
:1006800001D5C0B27047C905FCD580B270472DE9CD
:10069000F0470D4699469246044600F12408016849
:1006A000880604D5E06921F01001216000E00120F6
:1006B000A84201DD471B00E00027A1697A1902EB7F
:1006C0000900081AA0612078C00602D42046FFF76E
:1006D000A5FF002608E0D4E901211AF8060090479A
:1006E000206A401C761C20624E45F4DB2078C00650
:1006F0000AD52046FFF792FF06E0D4E90121302019
:100700009047206A401C2062381EA7F10107F4DCE4
:1007100007E0D4E9012118F805009047206A401C41
:100720002062281EA5F10105F3DC2046FFF78CFFAF
:100730002078000602D50220BDE8F0870120FBE703
:1007400011680268006A530501D508700AE0D305F4
:1007500001D5088006E0130603D5C217C1E90002DF
:1007600000E008600120704701694A1C02610878B6
:10077000704700B58FB0CDE90131002105910549E1
:100780007944CDE9031011466846FFF7F9FD0FB033
:1007900000BD0000E5FFFFFF0A6802F8010B0A60D8
:1007A000704710B5436913B1AFF3008001E0FFF764
:1007B00081FD012010BD127800F124010A70002291
:1007C0004A700122EDE711684FF0FF32E9E70000BF
:1007D000074B70B50D467B44FFF7CBFF0446284618
:1007E00000F00EFD10B14FF0FF3070BD204670BD1F
:1007F000773C00002DE9FF5F15468A460446DFF886
:10080000AC80F8440027D8E900103E46CDE900103E
:1008100010E03AF816106A4602A800F0F5FC411CF8
:1008200007D02178890603D5E269391891420DD89D
:100830000744761C2078800602D5E069B84205DDC1
:10084000AE42E6DB3AF816000028E2D1A069C01BF0
:10085000A0612046FFF7E2FED8E90010CDE90010C4
:10086000002017E03AF818106A4602A800F0CCFC05
:10087000B0F1FF3F81460BD000250DF1080B05E0DC
:10088000D4E901211BF8050090476D1C4D45F7D3B5
:1008900008F10100B0428046E4DB206A384420625F
:1008A0002046FFF7D1FEBDE8FF9F0000264600006E
:1008B0002DE9F0418046D21D22F007020025D2E941
:1008C0000002F52915A614D0011E72F1000106DA06
:1008D0000023D0EB030063EB020211A608E0D8F876
:1008E00000108B0701D50FA602E0490701D50EA61F
:1008F00001251146002408F1240704E000F098F8CF
:1009000030323A55641C50EA0102F7D12B46324688
:1009100021464046BDE8F041FFF7B9BE00000000A7
:100920002D0000002B0000002000000030B400214A
:1009300000F1240408E002F00705D208303542EA4D
:100940004372DB086554491C52EA0305F3D104687D
:10095000002310A2250707D5A40600D421B1C4693D
:1009600001230DA2641EC46130BCFFF790BE10B518
:10097000044621461068FFF781FE02462046BDE886
:1009800010400023D2E7D21D22F00701D1E9002355
:10099000CCE700000000000030000000F0B40D467D
:1009A0000188090502D5214C7C4402E01F4C7C449F
:1009B0000E34002100F1240608E002F00F071209AE
:1009C000E75D42EA03721B097754491C52EA0307A8
:1009D000F3D102780023120704D5702D06D009B197
:1009E000022311342246F0BCFFF751BE012310341C
:1009F000F8E770B504460D4621461068FFF73EFE45
:100A0000024629462046BDE870400023C6E7D21DB5
:100A100022F00703D3E90023C0E70368126843F01C
:100A2000200303600823C3610023B7E78844000064
:100A300030B5B0F10A024FEA900E71F100034EEAB0
:100A4000817EB0EB0E0061EB91014FEA101E4EEA81
:100A5000017E10EB0E0041EB11114FEA102E4EEA11
:100A6000016E10EB0E0041EB11214FEA104E4EEAE1
:100A7000014E10EB0E0041EB1141401841F1000115
:100A80004FEAD00040EA41704FEAD10110EB8005F7
:100A90004FEA810444EA907444EB01046D1944EB7D
:100AA0000404521BA3414FF0000348BF0A3200D593
:100AB00030BD401C41F1000130BD70472DE9FF4FB2
:100AC0000C461E464FF0FF378BB0D2E90001DDF82F
:100AD00060800A908A46C1F30A5505B93D46002157
:100AE00008464FF00000BAF1000F00F4400005DAAC
:100AF00000EB80004FF4400101EA50004FEA9059AA
:100B0000B9F1010F00DDB9460A9850EA4A000ED04B
:100B100044F61050A5F2FF3545432F14B8F1000FED
:100B20001ED07542291E1EDDC9F100021CE0B8F17D
:100B3000010F4FF0000001D0302103E0F24305E047
:100B40002154401CB042FBDB3046002200212154DE
:100B50000B99C1F80880C1E900200FB0BDE8F08F03
:100B6000BD1B6D1CDEE74A4600DA694206A800F0AC
:100B7000DDFB06AB93E8070003AB83E807005046B4
:100B80000A9900F053FC8DE80700A0F500501F38CB
:100B900000900398002D0ADD42F21F014A460844E6
:100BA000002303A90390684600F0BCFE09E0A0F50D
:100BB00000504A461F38002303A90390684600F0FE
:100BC000C6FE8DE807000004000C03D04FF0FF3094
:100BD000410800E01046B8F1000F03D00022009257
:100BE00015461EE0751E05D4FFF722FF3032625510
:100BF0006D1EF9D5B3460122084302D000227F1CA6
:100C000004E02078302801D100227F1E002A0997B5
:100C100084D01DE0112D07DAFFF70AFF303262554C
:100C20006D1C50EA0102F5D1084302D00098C8B10A
:100C30000EE00021681E05E0235C625C63542254D0
:100C4000401E491C8142F7DBAB46A81B401E0990A1
:100C5000002004F80B000B98099AC0F80880C0E93E
:100C6000002B7AE711264FF0000857E72DE9F04FE7
:100C700088460446D21D22F0070191B0D1E9000157
:100C8000CDE90A0103F0AAFB02460B98C00F01D080
:100C90002D2007E02068810701D52B2002E02021CC
:100CA00001EAC000032A099001D0072A05DB0346A8
:100CB0004146204600F0FAFA0BE12078800601D583
:100CC000E06900E00620B8F1650F814606D0B8F172
:100CD000660F18D0B8F1670F70D131E00020B9F17C
:100CE000110F009001DB112301E009F101030AAAB1
:100CF00001A90CA8FFF7E2FEDDE90C70002609F15E
:100D00000105834647E001204B4600904FF0004725
:100D10000AAA01A90CA8FFF7D1FEDDE90DB00C99D4
:100D20005D46002610B909F101000D18B9EB050068
:100D300003D4C0F1FF3609F10105A5EB09002BE052
:100D4000B9F1010F01DA4FF001090020B9F1110FDB
:100D50000090484601DD112300E003460AAA01A9DC
:100D60000CA8FFF7ABFEDDE90C704D46002683466C
:100D7000207800070AD4AB4500DA5D4601A8012DB2
:100D800004DD411911F8011C302907D04F4502DA62
:100D900017F1040F04DA012082460FE06D1EEEE722
:100DA000002F02DCED1B3E4403E0781CA84200DD6E
:100DB0007D1CB81B00F1010A4FF0004720780007A6
:100DC00003D4AA4501DB4FF0FF3A0021B7F1004FF1
:100DD0000DF143088DF8431024D002202B23002F5F
:100DE00001DA7F422D230A21021EA0F1010000DC5E
:100DF0005FB197FBF1FC97FBF1F201FB1C7C1746FE
:100E00000CF1300C08F801CDEEE7A8F101000370F9
:100E10002188090501D5452100E06521A0F10108DF
:100E200000F8011C09980FA9A1EB0807FF1D00B1EC
:100E30000120411901EBEA70A1693844081A401EEB
:100E4000A0612078C00602D42046FFF7E7FB09988E
:100E500028B1D4E901219047206A401C2062207803
:100E6000C00622D52046FFF7D9FB1EE0002E04DB8A
:100E7000B34502DD01A8805D00E03020D4E9012106
:100E80009047206A401C2062761CAAF101005FEAAC
:100E9000000A0AD100F006FAC0680168405CD4E993
:100EA00001219047206A401C2062281EA5F10105FF
:100EB000DCDC07E0D4E9012118F8010B9047206A37
:100EC000401C2062381EA7F10107F3DC2046FFF723
:100ED000BBFB032011B041E62DE9F04F04460D465F
:100EE000D21D22F0070089B0D0E900974846394664
:100EF00003F074FA0246F80F01D02D2307E02068B2
:100F0000810701D52B2302E0202101EAC0038DF8DF
:100F100020300BB1012000E00020032A824601D0DE
:100F2000072A04DB2946204600F0C0F93FE120787B
:100F3000800601D40D2500E0E569C7F30A560D2DA2
:100F400049DA00214FEA175B08464FF00000002FF6
:100F500000F4400007DA00EB80004FF4400100EBA2
:100F6000D07001EA60008115012901DD4FF0FF31E9
:100F700000224FEA850CBCF1180F06D31346ACF1E2
:100F800018004FF08052C24003E04FF4801323FA60
:100F90000CF30CF10C0CBCF1200F04D3ACF1200CC1
:100FA00009FA0CF001E007FA0CF000294FF00048B4
:100FB00001DD18B90FE00ED140450CD319EB020941
:100FC0005F4121B9404502D19F4329EA0209BBEBA9
:100FD000175F00D0761C2088000502D57B48784436
:100FE00002E07A487844193808AA302302F80A3017
:100FF000037C0AF10101002E0AF1020A53546A46E9
:1010000002DC4FF0300101E04FF031014FF00108F8
:101010008DF8001002D0A6F2FF3603E059EA47012E
:1010200000D06B4E002D02DC2178090704D54FF06B
:1010300002082E218DF80110C44600210BE0C7F3F1
:1010400003433F01C35C491C6D1E02F808300529AB
:1010500008F1010801DA002DF1DC00210CE000EBC1
:101060001973491C1B786D1E082902F808304FEAD5
:10107000091908F1010801DA002DF0DC21688B065E
:1010800002D516E0A8F10108E04505DD02EB0803F2
:1010900013F8013C302BF5D0B8F1000F09DD02EB5D
:1010A000080313F8013C2E2B03D1090701D4A8F142
:1010B0000108002D05DD3E2102F808106D1E08F123
:1010C0000108407C002E02F8080008F1010804DA4B
:1010D0002D20764202F8080002E02B2002F80800DA
:1010E0000A214FF47A70864208F101080BDB96FB67
:1010F000F0F3303302F8083096FBF0F308F1010802
:1011000000FB136601E0642E0CDB642096FBF0F319
:10111000303302F8083096FBF0F308F1010800FBC9
:10112000136601E00A2E06DB96FBF1F0303002F880
:10113000080008F1010896FBF1F001FB1060303067
:1011400002F80800A16908F1010808EB050202EBAA
:101150000A00081AA0612078C00602D42046FFF7D2
:101160005DFA216A08AE01EB0A00206204E0D4E9CE
:10117000012116F8010B9047BAF1010AF7D2207845
:10118000C00602D52046FFF749FA6E4609E016F878
:10119000010B3E280FD0D4E901219047206A401C62
:1011A0002062B8F10108F2D22046FFF74DFA09B0EB
:1011B0000320BDE8F08F206A2844206203E0D4E9D0
:1011C0000121302090476D1EEBD3F8E78D3E0000E3
:1011D00002FCFFFF10B5436913B1AFF3008001E0DB
:1011E000FFF708FB012010BD128800F12401828462
:1011F0000022C2840122EDE711684FF0FF32E9E7D7
:10120000007B00F08000704770B516460C4605461E
:1012100000F040F8036893F80101012806D0FF2C84
:101220000FD8185D68B101202C7070BDD3F807018C
:101230003246214603F2071303442846BDE87040B6
:1012400018474FF0FF3070BD754600F0EBF8AE4622
:1012500005006946534620F00700854618B020B5C2
:10126000FEF7F6FFBDE820404FF000064FF0000704
:101270004FF000084FF0000B21F00701AC46ACE83E
:10128000C009ACE8C009ACE8C009ACE8C0098D46AB
:101290007047000010B500F005F8001D10BD00BF3C
:1012A0000533000000487047440800202DE9F04154
:1012B0001F46044603260168072A01F4006004DB88
:1012C00008B116A505E016A503E008B115A500E0D4
:1012D00015A521F010002060A069C01EA0610FB10B
:1012E000401EA0612046FFF799F94FB1D4E90121D2
:1012F00038469047206A401C2062C01C206206E0ED
:10130000206AFAE7D4E9012115F8010B9047761E0F
:10131000F8D22046FFF798F9BDE8F0814E414E0023
:101320006E616E00494E4600696E66002DE9F04719
:10133000814616468AB0354878440DC88DE80D00C0
:1013400032487844801C03AC0DC884E80D0041F697
:101350009B300844372190FBF1F290FBF1F5A5F1A9
:10136000800501FB12041B3C02D56442012000E011
:101370000020DFF898A080460027FA44AAF1BE0AB0
:101380000EE0E0070AD03246684607EB470101232A
:101390000AEB810100F0DBFA8DE8070064107F1C86
:1013A000002CEED1194F7F44AE3F19E0E80715D06D
:1013B00007EB04100DF1180A90E80E008AE80E0001
:1013C000C068F04201D1981908903246012306A95D
:1013D00003A800F0BCFA03AB83E807006D10641C9F
:1013E000002DE3D14FF0010332466946B8F1000FFA
:1013F00003A802D000F096FA01E000F0A8FAC9E9CB
:101400000001C9F808200AB0BDE8F087C43B00001D
:1014100010B50446AFF300802046BDE81040FEF74B
:1014200002BF000000487047240800205FEA400C1B
:1014300008BF91F0000F4FEA8C234FEAC12243EA24
:1014400051514FEA1C5018BF00F5F0404FEA3000F0
:1014500018BF41F000415FEA6C5C00F02980BCF1EC
:10146000FF3F08BF40F080407047130C06BF1204D6
:101470004FF0100C4FF0000C130E04BF12020CF1D1
:10148000080C130F04BF12010CF1040C930F04BFDE
:1014900092000CF1020CD30F04BF52000CF1010CAE
:1014A00011464FF00002A0F11F00A0EB0C007047A6
:1014B00011F0004F08BF704731F000413FF4D5AF45
:1014C0000B0C06BF09044FF0100C4FF0000C0B0E74
:1014D00004BF09020CF1080C0B0F04BF09010CF149
:1014E000040C8B0F04BF89000CF1020CCB0F04BF5E
:1014F00049000CF1010CCCF12003A0EB0C0022FA06
:1015000003F302FA0CF241EA030100F10100704713
:1015100020F07F4C80EA030023F07F47ACEB070309
:1015200003F57C5300F0004003F1FF032DE98049EF
:101530004FEA154B09B44FEA144325EA0B4E24EA4F
:1015400003480FF2042606EB132749083E785FEAAA
:10155000320203FB0667C7F5000707FB06F64FEAF2
:1015600054374FEAD64606F1020607FB066CCCF16B
:10157000005C4FEA1C472CEA074C07FB06F40CFB07
:1015800006F504EB15464FEA961634BF00204FF0DF
:1015900000404FEAD13706FB07FC4FEA1C4C0CFB1E
:1015A0000BF7D21B03FB0CF761EB07010CFB0EF7EB
:1015B000B0EB074072EB17420CFB08F734BFA2EB0D
:1015C0000742B2EB074261EB17414FEA0C444FEA86
:1015D000910706FB07FC4FEA1C4C0CFB0BF7B0EB2A
:1015E000C74072EB573203FB0CF734BFA2EBC74284
:1015F000B2EBC74261EB57310CFB0EF7B0EBC70003
:1016000072EB57720CFB08F734BFA2EBC702B2EBC8
:10161000C70261EB5771039F4FEA816141EA921162
:1016200004EBCC044FEAD1374FEA826206FB07FC99
:1016300042EA90124FEA80604FEA1C4C0CFB0BF719
:10164000D21B03FB0CF761EB07010CFB0EF7B0EBB1
:10165000074072EB17420CFB08F734BFA2EB0742BE
:10166000B2EB074261EB17414FEA8C554FEA910705
:1016700004EB9C2406FB07FC4FEA1C4C0CFB0BF70D
:10168000B0EBC74072EB573203FB0CF734BFA2EB51
:10169000C742B2EBC74261EB57310CFB0EF7B0EB20
:1016A000C70072EB57720CFB08F734BFA2EBC702FE
:1016B000B2EBC70261EB577115EB4C254FEA816124
:1016C00041EA92114FEA82624FEAD13742EA901220
:1016D00006FB07FC44F100044FEA80604FEA1C4C13
:1016E0000CFB0BF7D21B03FB0CF761EB07010CFBA8
:1016F0000EF7B0EB074072EB17420CFB08F734BF54
:10170000A2EB0742B2EB074261EB174115EB1C1548
:101710004FEA813141EA92414FEA823242EA9042F5
:101720004FEA80304FEA0C7644F1000448EA034364
:101730004EEA0B484FF0000EB2EB080C71EB0307BA
:1017400024BF624639464EEB0E0E4FF0000B0018D8
:10175000524149414BEB0B0BB2EB080C71EB030709
:101760007BF1000B24BF624639464EEB0E0E4FF064
:10177000000B0018524149414BEB0B0BB2EB080C2C
:1017800071EB03077BF1000B24BF624639464EEB39
:101790000E0E51EA020718BF46F0010616EB0E7650
:1017A00055F1000254F1000103D5BDE88901BDE8FF
:1017B0000088BDE88901BDE80048B619524141EBF7
:1017C0000101A3F10103704780807F7E7D7C7B7ADD
:1017D0007978777676757473727171706F6E6E6DDD
:1017E0006C6C6B6A6A696868676666656464636383
:1017F00062616160605F5F5E5E5D5D5C5C5B5B5A09
:101800005A59595858575756565555555454535375
:1018100052525251515050504F4F4F4E4E4D4D4DD0
:101820004C4C4C4B4B4B4A4A4A494949484848471B
:101830004747474646464545454444444443434359
:101840004342424242414141002B9C4630D4770002
:101850002BD01CB54FEA370703B44FF010004FF000
:101860001001BAF1000F06D0BCF1000FDCBF40F050
:10187000080040F008014FF000000FBCBDE8104028
:101880000BF1010BBBF1010F08BF5FEA170722BF85
:1018900012F1010211F101014FF0004143F1000387
:1018A00000F0004043EA00007047F9D35708D0E742
:1018B00046EA064613F1400F4FEA16461FDD13F1C4
:1018C000200FDFBF16430A46002120335B42BED003
:1018D000C3F1200746EA064602FA07F74FEA164622
:1018E00046EA0706C3F1200722FA03F201FA07F7D6
:1018F00021FA03F14FF0000342EA0702A7E746EAA4
:10190000020646EA06464FEA164646EA0106BCBF0C
:1019100046EA0646360C4FF000034FF000024FF047
:10192000000194E72DE9804C9A46934670B491E803
:10193000380007C831EA400C48BF34EA430C03D5ED
:10194000FFF7E6FDFFF780FFF0BCBDE8008C2DE956
:10195000804C9A46934670B491E8380007C810F05E
:10196000804F08BF13F0804F03D100F005F8FFF758
:101970006BFFF0BCBDE8008C20F07F4780EA0300DD
:1019800023F07F4C07EB0C03A3F57C5300F00040E1
:10199000A3F1FE0392F0000F00F0B38095F0000F6A
:1019A00000F077802DE901494FEA11404FEA1446D3
:1019B00021EA004800FB06FC24EA064708FB06F67D
:1019C00007FB08F800FB07F718EB06484CEB164C32
:1019D0004FEA124B18EB07484FEA15464CEB1740FD
:1019E00022EA0B4E0BFB06FC25EA06470EFB06F629
:1019F00007FB0EFE0BFB07F71EEB064E4CEB164CDF
:101A00004FF000061EEB074E4CEB174B18EB0B0884
:101A100040F1000018EB0E0B58EB000840F10000FD
:101A20008F1A4FF000013CBFC943661B14BFB5EBD2
:101A3000040C00213CBFC943F61B4FEA17444EEA91
:101A40008E0E27EA04454FEA1C4704FB07622CEA86
:101A5000074C05FB07F70CFB05F604FB0CFC16EB2B
:101A6000074642EB174216EB0C4642EB1C421BEBBF
:101A7000060658EB0202414146EA9E0601D5BDE842
:101A80000189B619524141EB0101A3F10103BDE8FF
:101A900001894FEA14454FEA114724EA054621EA35
:101AA000074C05FB07F406FB07F70CFB06F105FBEB
:101AB0000CFC11EB074144EB17444FEA124711EBC2
:101AC0000C4144EB1C4422EA074C05FB07F206FBE1
:101AD00007F70CFB06F605FB0CFC16EB074642EB82
:101AE000174216EB0C4642EB1C456A1854F10001F4
:101AF00048BF7047B619524141EB0101A3F1010300
:101B0000704795F0000F37D04FEA11424FEA144763
:101B100021EA024624EA074C02FB07F106FB07F71D
:101B20000CFB06F402FB0CFC14EB074441EB1741E1
:101B30004FEA154714EB0C4441EB1C4125EA074CD6
:101B400002FB07F506FB07F70CFB06F602FB0CFC95
:101B500016EB074645EB174516EB0C4645EB1C42CA
:101B6000121951F1000148BF7047B619524141EBBB
:101B70000101A3F1010370474FEA14454FEA1147F1
:101B800024EA054621EA074C05FB07F106FB07F7A7
:101B90000CFB06F24FF0000605FB0CFC12EB0742B3
:101BA00041EB174112EB0C4251EB1C4148BF70470F
:101BB000921841EB0101A3F10103704700BFFEE75A
:101BC000704772B600BFFEE70146002291F821007F
:101BD000022808D00420886300BF002081F820007C
:101BE00000BF012070470868006820F00E000B68F5
:101BF00018600868006820F001000B68186091F810
:101C0000403001209840CB6B5860012081F82100C2
:101C100000BF002081F8200000BF1046E2E700006E
:101C200070B50446002594F82100022803D0042052
:101C3000A063012548E02068006820F00E002168BC
:101C400008602068006820F00100216808601F49D2
:101C50002068884201D1012026E01C491431206807
:101C6000884201D110201FE018492831206888429D
:101C700001D1801518E015493C312068884201D116
:101C8000801411E0114950312068884202D14FF48C
:101C9000803009E00D4964312068884202D14FF458
:101CA000801001E04FF08070084908394860012039
:101CB00084F8210000BF002084F8200000BF606B82
:101CC00010B12046616B8847284670BD080002406D
:101CD00070B5044600F0B8F906462546681C10B1F8
:101CE00004480078054400BF00F0AEF9801BA8420C
:101CF000FAD370BD280000202DE9F84703460022E2
:101D000094466EE14FF0010808FA02F4D1F8008021
:101D100008EA0400A0427DD1DFF8DCA2D1F80480FB
:101D2000A8EB0A09D0453AD014DCB8F1030F50D023
:101D300009DCB8F1000F31D0B8F1010F1CD0B8F1B7
:101D4000020F49D120E0B8F1110F18D0B8F1120FED
:101D500042D11EE0B9F5881F25D006DCB9F5803FD9
:101D600020D0B9F5801F37D11AE0B9F5001F18D07F
:101D7000B9F5041F30D117E0D1F80CC02DE0D1F82F
:101D80000C8008F1040C28E0D1F80C8008F1080C54
:101D900023E0D1F80C8008F10C0C1EE000BF00BF5E
:101DA00000BF00BF00BF00BFD1F80880B8F1000F2E
:101DB00002D14FF0040C0BE0D1F80880B8F1010F0C
:101DC00003D14FF0080C1C6102E04FF0080C5C617D
:101DD00003E04FF0000C00E000BF00BFFF2801D877
:101DE000984601E003F104084646FF2802D84FEA6E
:101DF000820803E0A2F108084FEA88084746D6F8AF
:101E000000804FF00F0909FA07F928EA09080CFACF
:101E100007F900E088E048EA0908C6F80080D1F830
:101E2000048008F08058B8F1805F7DD100BFDFF8F2
:101E3000CC81D8F8188048F00108DFF8C091C9F8C3
:101E40001880C846D8F8188008F00108CDF800803E
:101E500000BF00BF4FEAB9384FEA920958F829503D
:101E60004FEA82784FEA18794FF00F0808FA09F81C
:101E700025EA0805DFF88881434502D14FF00008C4
:101E800016E0DFF88081434502D14FF001080FE0F2
:101E9000DFF87481434502D14FF0020808E0DFF813
:101EA0006C81434502D14FF0030801E04FF0040874
:101EB0004FEA82794FEA197908FA09F848EA0505E4
:101EC000DFF84C814FEA920948F82950D1F8048094
:101ED00008F48018B8F5801F0AD1DFF83881D8F8E7
:101EE000008048EA0008DFF82C91C9F8008009E07A
:101EF000DFF82081D8F8008028EA0008DFF8149184
:101F0000C9F80080D1F8048008F40018B8F5001F63
:101F100010D1DFF8008108F10408D8F8008048EA01
:101F20000008DFF8F09000E05AE009F10409C9F870
:101F300000800DE0DFF8DC8008F10408D8F80080AC
:101F400028EA0008DFF8CC9009F10409C9F80080FC
:101F5000D1F8048008F40038B8F5003F0ED1DFF85E
:101F6000B480A8F10408D8F8008048EA0008DFF837
:101F7000A490A9F10409C9F800800DE0DFF894806D
:101F8000A8F10408D8F8008028EA0008DFF8849057
:101F9000A9F10409C9F80080D1F8048008F4803858
:101FA000B8F5803F0ED1DFF86C80A8F10808D8F8AA
:101FB000008048EA0008DFF85C90A9F10809C9F838
:101FC00000800DE0DFF84C80A8F10808D8F8008008
:101FD00028EA0008DFF83C90A9F10809C9F8008058
:101FE000521CD1F8008028FA02F8B8F1000F7FF4F3
:101FF00089AEBDE8F8870000000011100010024013
:1020000000080140000C0140001001400014014094
:102010000800014008040140024693680B400BB1E0
:10202000012000E00020704710B5C26821EA0203D9
:1020300002EA010443EA0443036110BD0AB10161ED
:1020400001E00B040361704701480068704700001D
:10205000200000202DE9F8430446894616461F4615
:10206000DDF82080FFF7F0FF054694F83D002028BA
:102070007ED11923012251492046009501F0F2FA40
:1020800010B10220BDE8F88300BF94F83C0001289D
:1020900001D10220F6E7012084F83C0000BF20684F
:1020A000006800F0010028B92068006840F00100D5
:1020B000216808602068006820F4006021680860DA
:1020C000212084F83D00102084F83E000020206488
:1020D00066626785608D20853948E0622B464246FE
:1020E0004946204601F030FA08B10120CAE700BF96
:1020F000002000902068406900902068806900906E
:1021000000BF00BF44E02A464146204601F04FFB95
:1021100050B1206C042805D12068006840F400709C
:10212000216808600120ADE7606A007821680861D5
:10213000606A401C6062608D401E6085208D401E7C
:10214000208520684069C0F3800070B1208D60B1A7
:10215000606A007821680861606A401C6062608D76
:10216000401E6085208D401E20852A46414600E0A5
:1021700022E0204601F048FA50B1206C042805D135
:102180002068006840F4007021680860012079E749
:10219000208D0028B7D12068006840F400702168C5
:1021A0000860202084F83D00002084F83E0000BF35
:1021B00084F83C0000BF65E7022063E702001000DE
:1021C0000000FFFF034800680349097808440149FB
:1021D00008607047200000202800002010B5084843
:1021E000006840F0100006490860052000F0ACF8D7
:1021F000032000F007F800F02BF8002010BD0000CD
:102200000020024070B504460E4800784FF47A7101
:10221000B1FBF0F00C490968B1FBF0F5284600F07D
:10222000FDFB08B1012070BD102C07D20022214611
:10223000501E00F04BF80548046001E00120F2E771
:102240000020F0E7280000202C00002024000020BF
:1022500008B500BF1348806940F00100114988614A
:102260000846806900F00100009000BF00BF00BF79
:102270000846C06940F08050C8610846C06900F057
:102280008050009000BF00BF052000F05DF800BF47
:102290000549486820F0E06040F00070486000BFE9
:1022A00008BD000000100240000001400146084641
:1022B000002809DB00F01F0301229A4043099B001C
:1022C00003F1E023C3F8002100BF70472DE9F05F60
:1022D00080460D461646002702F094F80746394618
:1022E0002A46334601F00700C0F1070ABAF1040F8D
:1022F00002D94FF0040A01E0C0F1070AD14600F10B
:10230000040ABAF1070F02D24FF0000A01E0A0F16F
:10231000030AD4464FF0010A0AFA09FAAAF1010A9F
:102320000AEA020A0AFA0CFA4FF0010B0BFA0CFB4C
:10233000ABF1010B0BEA030B4AEA0B0421464046C2
:1023400002F068F8BDE8F09F00BF00F00702064BFE
:1023500019684FF6FF031940044B0B4343EA02216F
:10236000014B196000BF70470CED00E00000FA055A
:1023700070B504460D460CB9012070BD5A4800687E
:1023800000F00700A8420ED25748006820F007006E
:102390002843554908600846006800F00700A84235
:1023A00001D00120E9E7207800F0020002281DD1C9
:1023B000207800F00400042805D14C48406840F41F
:1023C000E0604A494860207800F00800082805D1FC
:1023D0004648406840F4605044494860434840687B
:1023E00020F0F000A168084340494860207800F0E0
:1023F000010078B36068012806D13C48006800F409
:10240000003090B90120B8E76068022806D137484B
:10241000006800F0007040B90120AEE73348006862
:1024200000F0020008B90120A7E73048406820F01A
:102430000300616808432D494860FFF705FE064622
:1024400009E0FFF701FE801B41F28831884202D982
:10245000032092E707E02548406800F00C0061681F
:10246000B0EB810FEDD12048006800F00700A842D2
:102470000ED91D48006820F0070028431A4908605B
:102480000846006800F00700A84201D0012074E768
:10249000207800F00400042807D11448406820F494
:1024A000E060E168084311494860207800F00800C6
:1024B000082808D10D48406820F46050216940EA9E
:1024C000C1000A49486000F03FF808494968C1F373
:1024D0000311074A515CC840064908600648006875
:1024E000FFF790FE002048E7002002400010024065
:1024F000024E00082C000020240000200148006843
:10250000704700002C00002000B5FFF7F7FF0449DA
:102510004968C1F30221034A515CC84000BD000074
:1025200000100240124E000800B5FFF7E7FF044913
:102530004968C1F3C221034A515CC84000BD000094
:1025400000100240124E000870B500210022002445
:1025500000230020134D696801F00C05F5B1042D2E
:1025600002D0082D19D101E00F4819E00F4DC1F339
:102570008346AB5D01F4803555B10A4D6D68C5F3F6
:1025800040450B4E725D084D5D43B5FBF2F402E031
:10259000084D03FB05F4204602E000BF024800BFDF
:1025A00000BF70BD0010024000127A00F04D00081C
:1025B000004E000800093D00F8B504460CB90120A2
:1025C000F8BD207800F00100002878D0F848406875
:1025D00000F00C0004280CD0F548406800F00C0016
:1025E000082811D1F248406800F48030B0F5803FEF
:1025F0000AD1EF48006800F4003000285FD060681E
:1026000000285CD10120DBE700BF6068B0F5803FA7
:1026100006D1E748006840F48030E549086028E0CA
:10262000606858B9E248006820F48030E0490860EA
:102630000846006820F4802008601AE06068B0F561
:10264000A02F0BD1DA48006840F48020D8490860F8
:102650000846006840F4803008600AE0D44800680A
:1026600020F48030D24908600846006820F48020B9
:10267000086000BF606888B1FFF7E6FC054606E029
:10268000FFF7E2FC401B642801D9032098E7C84803
:10269000006800F400300028F2D010E0FFF7D4FC0E
:1026A000054606E0FFF7D0FC401B642801D9032053
:1026B00086E7BF48006800F400300028F2D1207897
:1026C00000F00200022857D1B948406800F00C0021
:1026D00050B1B748406800F00C00082818D1B44841
:1026E000406800F4803098B9B148006800F00200FA
:1026F00020B12069012801D0012061E7AC480068C1
:1027000020F0F800616940EAC100A949086033E09F
:102710002069E8B10120A7490860FFF795FC05464C
:1027200006E0FFF791FC401B022801D9032047E790
:102730009F48006800F002000028F2D09C48006822
:1027400020F0F800616940EAC1009949086013E08F
:10275000002098490860FFF777FC054606E0FFF780
:1027600073FC401B022801D9032029E79048006828
:1027700000F002000028F2D1207800F008000828BC
:102780002DD1A069B8B101208B490860FFF75CFC2E
:10279000054606E0FFF758FC401B022801D903203C
:1027A0000EE78348406A00F002000028F2D00120C2
:1027B00001F0B4FA13E000207F490860FFF744FC01
:1027C000054606E0FFF740FC401B022801D9032024
:1027D000F6E67748406A00F002000028F2D120783F
:1027E00000F00400042873D100277148C06900F08C
:1027F000805070B900BF6E48C06940F080506C498D
:10280000C8610846C06900F08050009000BF00BF5A
:1028100001276A48006800F48070B0B96748006812
:1028200040F4807065490860FFF70EFC054606E03D
:10283000FFF70AFC401B642801D90320C0E65F486B
:10284000006800F480700028F2D000BFE068012822
:1028500006D15748006A40F001005549086227E058
:10286000E06858B95248006A20F0010050490862F7
:102870000846006A20F00400086219E0E0680528B4
:102880000BD14B48006A40F00400494908620846F1
:10289000006A40F0010008620AE04548006A20F042
:1028A0000100434908620846006A20F004000862FB
:1028B00000BFE068A0B1FFF7C7FB054609E0FFF7DE
:1028C000C3FB401B41F28831884202D9032077E6DE
:1028D00022E03748006A00F002000028EFD012E042
:1028E000FFF7B2FB054608E0FFF7AEFB401B41F2E5
:1028F0008831884201D9032062E62D48006A00F041
:1029000002000028F0D1012F05D12948C06920F02C
:1029100080502749C86100BFE069C8B324484068B7
:1029200000F00C00082860D0E069022848D100209F
:1029300020490866FFF788FB054606E0FFF784FBA1
:10294000401B022801D903203AE61948006800F02C
:1029500000700028F2D1206AB0F5803F07D11448FA
:10296000406820F40030A168084311494860D4E968
:10297000080108430E49496821F4741108430C49C1
:10298000486001200B490866FFF75EFB054607E03B
:102990003DE0FFF759FB401B022801D903200FE659
:1029A0000348006800F000700028F2D02FE000001B
:1029B0000010024000004242800442420070004089
:1029C000002014490866FFF73FFB054606E0FFF7C5
:1029D0003BFB401B022801D90320F1E50E480068AB
:1029E00000F000700028F2D111E0E069012800D168
:1029F000E6E50948466806F48031206A814204D140
:102A000006F47011606A814201D00120D8E50020EF
:102A1000D6E50000000042420010024070B50446B6
:102A20002546681EB0F1807F01D301200FE0681EAB
:102A30004FF0E02148610F214FF0FF3001F0EAFC38
:102A400000204FF0E021886107200861002070BD60
:102A50007047704730B502460B4600BF92F83C0005
:102A6000012801D1022030BD012082F83C0000BFC6
:102A7000022082F83D00106844681068816824F0E4
:102A800070041868044310684460104D1068A84230
:102A90000BD01068B0F1804F07D00D4D1068A842E0
:102AA00003D00C4D1068A84205D121F08001586870
:102AB000014310688160012082F83D0000BF0020C2
:102AC00082F83C0000BF00BFCDE70000002C0140B1
:102AD000000400400008004010B504460CB9012075
:102AE00010BD94F83D0028B9002084F83C00204631
:102AF00000F026F8022084F83D00211D206801F036
:102B0000CFF9012084F8460000BF84F83E0001217F
:102B10003F200155402001554120015500BF00BF15
:102B2000012084F8420043200155442001554520EE
:102B3000015500BF012084F83D000020D0E70000CF
:102B400038B504460D492068884215D100BF0C48AD
:102B5000C06940F002000A49C8610846C06900F037
:102B60000200009000BF00BF032201211D20FFF7DB
:102B7000ADFB1D20FFF79AFB38BD000000040040AC
:102B800000100240014691F83D00012801D00120CB
:102B90007047022081F83D000868C06840F00100DD
:102BA0000B68D860124B086898420BD00868B0F1E7
:102BB000804F07D00F4B0868984203D00E4B08682F
:102BC00098420CD10868806800F00702062A0CD0F1
:102BD0000868006840F001000B68186005E00868AC
:102BE000006840F001000B6818600020D0E700008A
:102BF000002C014000040040000800402DE9F04195
:102C000004460D46002700BF94F83C00012802D17D
:102C10000220BDE8F081012084F83C0000BF0220C2
:102C200084F83D002068866826F0770626F47F4603
:102C3000206886602868502833D00CDC202850D0CB
:102C400004DC00284BD0102851D149E0302849D06D
:102C500040284CD139E060282DD0702807D0B0F53D
:102C6000805F03D0B0F5005F41D10DE041E0D5E9D0
:102C700002136A68206801F04DF92068866846F002
:102C800077062068866034E0D5E902136A68206818
:102C900001F040F92068806840F480402168886035
:102CA00027E0EA686968206801F048F95021206847
:102CB00001F03BF91DE0EA686968206801F051F90C
:102CC0006021206801F031F913E0EA686968206842
:102CD00001F034F94021206801F027F909E000BF34
:102CE00000BF00BF2968206801F01FF901E001273B
:102CF00000BF00BF012084F83D0000BF002084F821
:102D00003C0000BF384684E7704710B50446206891
:102D10000069C0F34000D8B12068C068C0F340002B
:102D2000B0B16FF0020021680861012020772068AF
:102D3000806900F0030018B12046FFF7E5FF05E0C9
:102D4000204600F0ADF8204600F0ABF800202077D8
:102D500020680069C0F38000D8B12068C068C0F363
:102D60008000B0B16FF00400216808610220207774
:102D70002068806900F4407018B12046FFF7C4FF56
:102D800005E0204600F08CF8204600F08AF800208C
:102D9000207720680069C0F3C000D8B12068C068FF
:102DA000C0F3C000B0B16FF00800216808610420D2
:102DB00020772068C06900F0030018B12046FFF7B3
:102DC000A3FF05E0204600F06BF8204600F069F80C
:102DD0000020207720680069C0F30010D8B1206877
:102DE000C068C0F30010B0B16FF010002168086136
:102DF000082020772068C06900F4407018B1204690
:102E0000FFF782FF05E0204600F04AF8204600F078
:102E100048F8002020772068006900F0010058B1D0
:102E20002068C06800F0010030B16FF00100216837
:102E30000861204600F036F820680069C0F3C01031
:102E400058B12068C068C0F3C01030B16FF0800086
:102E5000216808612046FFF7FBFD20680069C0F388
:102E6000801058B12068C068C0F3801030B16FF096
:102E7000400021680861204600F015F820680069CC
:102E8000C0F3401058B12068C068C0F3401030B1A2
:102E90006FF02000216808612046FFF7DAFD10BDC1
:102EA0007047704770477047704770472DE9F84F7B
:102EB0000446206805682068C668206847694FF0A6
:102EC0000009CA4605F00F09B9F1000F0AD105F053
:102ED000200038B106F0200020B1204601F0A5F80E
:102EE000BDE8F88FB9F1000F7BD007F0010018B9E9
:102EF00006F49070002874D005F0010030B106F49B
:102F0000807018B1606C40F00100606405F004004E
:102F100030B107F0010018B1606C40F0020060644D
:102F200005F0020030B107F0010018B1606C40F00C
:102F30000400606405F0080048B106F0200010B9F4
:102F400007F0010018B1606C40F008006064606C2C
:102F5000002845D005F0200028B106F0200010B16F
:102F6000204601F062F820684069C0F3801A606C66
:102F700000F0080010B9BAF1000F2CD0204601F083
:102F80000EF82068406900F0400000B300BF00BFA9
:102F90002168143151E8001F21F0400021681431EC
:102FA00041E80002002AF3D100BFE06B50B177483E
:102FB000E16B4863E06BFEF733FE88B1E06B416B79
:102FC00088470DE02046FFF770FF09E009E0204642
:102FD000FFF76BFF04E02046FFF767FF0020606407
:102FE0007EE7206B012877D105F01000002873D010
:102FF00006F010000028FAD000BF002000902068E2
:103000000068009020684068009000BF00BF206802
:10301000406900F0400000285FD0E06B0068406825
:103020001FFA80F8B8F1000F55D0A08D404552DD51
:10303000A4F82E80E06B8069202843D000BF00BF39
:1030400021680C3151E8001F21F4807021680C3197
:1030500041E80002002AF3D100BF00BF00BF216891
:10306000143151E8001F21F001002168143141E8BA
:103070000002002AF3D100BF00BF00BF2168143155
:1030800051E8001F21F040002168143141E800029E
:10309000002AF3D100BF202084F8420000202063E2
:1030A00000BF00BF21680C3151E8001F21F0100063
:1030B00021680C3141E80002002AF3D100BFE06B27
:1030C000FEF782FD02206063A08DE28D801A81B23E
:1030D0002046FFF7E9FE03E742E0A08DE18D401AAC
:1030E0001FFA80F8E08DD0B3B8F1000F37D000BFE1
:1030F00000BF21680C3151E8001F21F49070216855
:103100000C3141E80002002AF3D100BF00BF00BF2C
:103110002168143151E8001F21F0010021681431A9
:1031200041E80002002AF3D100BF202084F84200C9
:103130000020206300BF00BF21680C3151E8001F50
:1031400021F0100021680C3141E80002002AF3D17F
:1031500000BF0220606341462046FFF7A5FEBFE6A0
:1031600005F0800030B106F0800018B1204601F073
:1031700079F8B5E605F0400030B106F0400018B12E
:10318000204600F042FFABE600BFA9E68B3F0008F7
:1031900010B504460CB9012010BDA06900B100E0D3
:1031A00000BF94F8410028B9002084F84000204670
:1031B00000F02AF8242084F841002068C06820F438
:1031C00000502168C860204600F0AEFF206800690A
:1031D00020F49040216808612068406920F02A00AE
:1031E000216848612068C06840F400502168C860C8
:1031F00000206064202084F8410084F84200002010
:10320000606300BFC8E7000010B586B00446002028
:1032100002900390049005903D492068884237D180
:1032200000BF3C48806940F480403A4988610846C4
:10323000806900F48040019000BF00BF00BF0846D5
:10324000806940F0040088610846806900F004004D
:10325000019000BF00BF4815029002200390032098
:10326000059002A92C48FEF747FD4FF480600290BC
:1032700000200390049002A92748FEF73DFD02229A
:1032800011462520FFF722F82520FFF70FF83CE034
:1032900022492068884238D100BF1E48C06940F4E6
:1032A00080201C49C8610846C06900F48020019054
:1032B00000BF00BF00BF0846806940F00800886179
:1032C0000846806900F00800019000BF00BF0815A3
:1032D0000290022003900320059002A91048FEF7F7
:1032E0000BFD4FF400600290002003900490032037
:1032F000059002A90A48FEF7FFFC0022114627208C
:10330000FEF7E4FF2720FEF7D1FF06B010BD000056
:103310000038014000100240000801400048004011
:10332000000C014070B504460D46164694F8420064
:1033300020280BD105B10EB9012070BD00202063FB
:1033400032462946204600F06DFFF6E70220F4E7FA
:1033500010B504463449206888423BD13348008880
:1033600000F4004088BB3148008800F4804070B110
:103370002F4800780A2803D000202C49088024E038
:103380002A48008840F40040284908801DE0284869
:1033900000780D2806D12548008840F48040234954
:1033A000088012E02248007820490988C1F30D0105
:1033B000204A50541D480088401C1C49088008467B
:1033C0000088C72801DD00200880012218491A481A
:1033D000FFF7A8FF19492068884224D118480088BF
:1033E00040F2FF3188420BDA164801781648144A39
:1033F0001288815412480088401C114908800DE051
:1034000000200F4908800F4801780F480C4A1288A5
:1034100081540B480088401C094908800122094951
:103420000A48FFF77FFF10BD003801401000002060
:1034300012000020CC00002094070020004800402B
:10344000160000201400002094010020DC0700205A
:103450002DE9F84F04460E46174699464FF0000AEC
:1034600094F8410020284AD106B117B90120BDE8DF
:10347000F88F00206064212084F84100FEF7E4FD0D
:103480008246A784E784A068B0F5805F04D12069F4
:1034900010B90025B04602E035464FF000081BE0A9
:1034A0005346002280212046CDF8009000F00AFF0C
:1034B00008B10320DBE745B9B8F80000C0F3080005
:1034C0002168486008F1020803E028782168486014
:1034D0006D1CE08C401EE084E08C0028E0D1534657
:1034E000002240212046CDF8009000F0EBFE08B10C
:1034F0000320BCE7202084F841000020B7E7022029
:10350000B5E7704700BFFEE7014608684069C0F3B1
:103510008020B0B16FF480600A68506100200863B9
:10352000202081F83D00002081F83E00086C40F02A
:103530000400086400BF002081F83C0000BF0120A7
:1035400070470020FCE700002DE9F84304460D46D3
:1035500017469846E66A082E04D0012E02D016F5CA
:10356000803F06D12068006840F4807021680860C0
:1035700008E0206B122805D12068006840F48070B4
:10358000216808603B4600224FF001112046CDF82B
:10359000008000F067F860B12068006800F4807077
:1035A000B0F5807F02D14FF4007020640320BDE8A5
:1035B000F8832069B0F5804F04D105F0FE00216842
:1035C000086112E005F44070F02141EAE010216842
:1035D000086143463A460B49204600F086F808B198
:1035E0000120E4E7E8B22168086143463A4605490C
:1035F000891F204600F079F808B10120D7E70020A4
:10360000D5E700000800010070B504460D461646D7
:1036100020E02046FFF778FF08B1012070BD681C4C
:10362000C0B1FEF711FD801BA84200D895B900205B
:103630002063202084F83D00002084F83E00206CA8
:1036400040F02000206400BF002084F83C0000BF50
:103650000120E3E720684069C0F380000028D8D04B
:103660000020DBE72DE9F04104460D4617461E46D3
:10367000DDF818801CE0701CD0B1FEF7E5FCA0EB73
:103680000800B04200D89EB900202063202084F8B2
:103690003D00002084F83E00206C40F020002064B3
:1036A00000BF002084F83C0000BF0120BDE8F0818D
:1036B000C5F3074001280AD120684069A9B2084033
:1036C000A9B2884201D101200BE0002009E0206866
:1036D0008069A9B20840A9B2884201D1012000E066
:1036E0000020B842C7D00020E0E72DE9F0410446B1
:1036F0000D4616461F463DE020684069C0F3802015
:10370000E8B12068006840F40070216808606FF438
:1037100080602168486100202063202084F83D00FB
:10372000002084F83E00206C40F00400206400BFBC
:10373000002084F83C0000BF0120BDE8F081701C2F
:10374000C0B1FEF781FCC01BB04200D896B9002082
:103750002063202084F83D00002084F83E00206C87
:1037600040F02000206400BF002084F83C0000BF2F
:103770000120E2E7C5F3074001280AD1206840692B
:10378000A9B20840A9B2884201D101200BE0002073
:1037900009E020688069A9B20840A9B2884201D135
:1037A000012000E000200028A6D00020C5E770B569
:1037B00004460D46164620E02046FFF7A5FE08B158
:1037C000012070BD681CC0B1FEF73EFC801BA84202
:1037D00000D895B900202063202084F83D00002007
:1037E00084F83E00206C40F02000206400BF0020E0
:1037F00084F83C0000BF0120E3E720684069C0F383
:10380000C0100028D8D00020DBE7000000B585B04C
:103810000020019002900390049000BF4F488069FF
:1038200040F004004D4988610846806900F00400BA
:10383000009000BF00BF00BF0846806940F008004C
:1038400088610846806900F00800009000BF00BF52
:1038500000BF0846806940F0100088610846806912
:1038600000F01000009000BF00BF00BF0846806954
:1038700040F0200088610846806900F02000009038
:1038800000BF00BF012251033548FEF7D7FB0122DC
:1038900011463448FEF7D2FB012202213148FEF7DF
:1038A000CDFB4FF400500190012002900390049052
:1038B00001A92B48FEF720FA022001900120029076
:1038C0000390049001A92748FEF716FA0120019001
:1038D00002900390049001A92248FEF70DFA2020DF
:1038E000019001200290002003900120049001A982
:1038F0001D48FEF701FA4FF400500190002002909D
:10390000039001A91748FEF7F7F94FF48050019092
:1039100000200290039001A91248FEF7EDF98020E3
:10392000019000200290039001A90F48FEF7E4F9EE
:103930004020019000200290039001A90A48FEF760
:10394000DBF94FF48040019000200290039001A920
:103950000448FEF7D1F905B000BD00000010024098
:1039600000100140000C01400008014000B587B084
:103970000020039004900590069001900290144856
:10398000144908604720486000211248816042F2D3
:103990000F71C160002101618161FFF79DF808B1DD
:1039A000FEF70FF94FF48050039003A90948FFF781
:1039B00025F908B1FEF705F900200190029001A950
:1039C0000448FFF747F808B1FEF7FBF807B000BD61
:1039D000000400408400002010B50B480B4908602B
:1039E0004FF4E1304860002108488160C160016106
:1039F0000C21416100218161C161FFF7C9FB08B160
:103A0000FEF7DFF810BD00000038014094070020E9
:103A100010B51348134908604FF4E13048600021A5
:103A200010488160C16001610C2141610021816108
:103A3000C161FFF7ADFB08B1FEF7C3F809480068A4
:103A4000C06840F0200007490968C8600548006860
:103A5000C06840F0100003490968C86010BD00004C
:103A600000480040DC07002000BFFEE700BFFEE783
:103A700070B5002415E004F1B001C8B200F024F9DB
:103A8000002000F021F9102000F01EF9002504E0CC
:103A9000002000F02DF9681CC5B2802DF8DB601CF9
:103AA000C4B2082CE7DB70BD10B54FF4FA70FEF716
:103AB0000FF9AE2000F008F9002000F005F9102001
:103AC00000F002F9402000F0FFF8812000F0FCF83F
:103AD000FF2000F0F9F8A12000F0F6F8C82000F06F
:103AE000F3F8A62000F0F0F8A82000F0EDF83F2051
:103AF00000F0EAF8D32000F0E7F8002000F0E4F846
:103B0000D52000F0E1F8802000F0DEF8D92000F0A8
:103B1000DBF8F12000F0D8F8DA2000F0D5F8122018
:103B200000F0D2F8DB2000F0CFF8402000F0CCF815
:103B3000202000F0C9F8022000F0C6F88D2000F027
:103B4000C3F8142000F0C0F8A42000F0BDF8A620AF
:103B500000F0BAF8AF2000F0B7F8FFF789FF0021B6
:103B6000084600F001F810BD70B504460D4605F199
:103B7000B001C8B200F0A8F8102141EA141000F01A
:103B8000A3F804F00F0141F0010000F09DF870BDB2
:103B90002DE9F04707460E46904699460025002439
:103BA000A8F12000C5B27F2F02DD0027701CC6B22D
:103BB000B9F1100F22D131463846FFF7D5FF002466
:103BC00007E004EB0511174A505C00F091F8601C07
:103BD000C4B2082CF5DB701CC1B23846FFF7C4FF35
:103BE000002408E004EB051108310E4A505C00F097
:103BF0007FF8601CC4B2082CF4DB11E03146384673
:103C0000FFF7B2FF002409E005EB4501064A02EB8D
:103C10004101085D00F06CF8601CC4B2062CF3DBB7
:103C2000BDE8F08700480008D845000870B5044694
:103C3000002023490880002538E020780A2808D190
:103C400000201F4908801F480088401C1D4908802B
:103C500029E020780D2826D0207800B928E01848DF
:103C600000887F2807DD0020154908801548008856
:103C7000401C1449088013480088072806DD0020EE
:103C8000104908800E490880FFF7F2FE22780D4B9C
:103C900019780B4B18780C23FFF77AFF0848008837
:103CA000083007490880641C681CC5B2642DC4DB59
:103CB00000BF04480088401C0249088070BD000015
:103CC0001A0000201C0000201CB5044600208DF8BE
:103CD00004008DF805404FF6FF70022301AA7821F9
:103CE00000900248FEF7B6F91CBD0000300000202D
:103CF0001CB5044640208DF804008DF805404FF6B1
:103D0000FF70022301AA782100900248FEF7A2F971
:103D10001CBD0000300000207047000008B50849B5
:103D20000968C9084FF47A72B1FBF2F1414300917E
:103D300000BF00BF00994A1E00920029F9D108BDBA
:103D40002C0000207047000010B513480088401C6C
:103D500011490880FEF736FA0F480088B0F57A7FDF
:103D60000EDD00200C4908800C480088401C0B49DF
:103D7000088000BF4FF400510948FEF755F900BF15
:103D800006480088B0F5967F05D1002003490880D9
:103D900001200449087010BD000000200800002028
:103DA000001001400A00002000B58FB0282105A8AE
:103DB000FCF7C9FB14216846FCF7C5FB0120059000
:103DC00000040690002007900120099002200C902A
:103DD000C1030D914FF4E0110E9105A8FEF7ECFB25
:103DE00008B1FDF7EEFE0F200090022001900020A8
:103DF00002904FF4806003900020049002216846F6
:103E0000FEF7B6FA08B1FDF7DCFE0FB000BD704753
:103E100010B51D48FEF779FF1C48007808B31C4810
:103E20000088401C1A49088008460088B0F5FA7FCF
:103E300005DD0020088015490870164908704FF408
:103E400000511548FEF7E8F808B9012000E000200D
:103E500038B100200E4908800C49087001200D4936
:103E600008700E48007868B109480088401C08496D
:103E7000088008460088B0F5FA7F03DD002008803E
:103E80000649087010BD00008400002004000020D6
:103E90000200002006000020000C01400500002068
:103EA00010B50268184B984208D0B0F1804F05D089
:103EB000164B984202D0164B984203D122F0700262
:103EC0004B681A43104B984208D0B0F1804F05D090
:103ED0000E4B984202D00E4B984203D122F440720E
:103EE000CB681A4322F080034C6943EA0402026063
:103EF0008B68C3620B688362034B984201D10B69E4
:103F000003630123436110BD002C01400004004005
:103F10000008004030B50C46816821F47F4142EA38
:103F2000032525432943816030BD0A46816821F07D
:103F3000700142F0070319438160704730B50B46AA
:103F40001446026A056A25F001050562816921F0BF
:103F5000F00141EA041122F00A021A43816102626F
:103F600030BD30B50B461446026A056A25F01005CF
:103F70000562816921F4704141EA043122F0A00216
:103F800042EA03128161026230BD70B505466C6A77
:103F90000020E085E0842046FEF787FF70BD00BF6B
:103FA00000BF02680C3252E8002F22F490710268C0
:103FB0000C3242E80013002BF3D100BF00BF00BF5A
:103FC0000268143252E8002F22F001010268143214
:103FD00042E80013002BF3D100BF016B01290ED181
:103FE00000BF00BF02680C3252E8002F22F010011F
:103FF00002680C3242E80013002BF3D100BF2021ED
:1040000080F8421000210163704710B50446206813
:10401000C06820F040002168C860202084F841007A
:104020002046FFF76EFA002010BDF8B5044694F85C
:104030004200222875D1A068B0F5805F0CD12069BC
:1040400050B90025A66A20684068C0F30800308097
:10405000A06A801CA06215E0A56A0026A068B0F5E1
:10406000805F03D0A06828B9206918B9206840682B
:10407000287004E02068406800F07F002870A06A83
:10408000401CA062E08D401E80B2E085002846D131
:104090002068C06820F020002168C8602068C068DF
:1040A00020F480702168C8602068406920F0010019
:1040B00021684861202084F8420000206063206B62
:1040C000012826D10020206300BF00BF21680C31E9
:1040D00051E8001F21F0100021680C3141E8000276
:1040E000002AF3D100BF2068006800F010001028FB
:1040F0000AD100BF0020009020680068009020686E
:104100004068009000BF00BFA18D2046FEF7CCFEA6
:1041100002E02046FFF71CF90020F8BD01E0002076
:10412000FBE70220F9E7000070B504462168096941
:1041300021F44051E2681143226811612269A168AB
:104140001143626941EA02052168C96841F20C62C3
:10415000914329432268D1602168496921F4407163
:10416000A2691143226851612D4A2168914202D10E
:10417000FEF7DAF901E0FEF7C7F900EBC00101EB49
:10418000001162689200B1FBF2F100EBC00202EB99
:10419000001263689B00B2FBF3F26423B2FBF3F2FC
:1041A00002EBC20303EB0212A1EB8201322202EB0B
:1041B00001116422B1FBF2F101F0F00100EBC00249
:1041C00002EB001263689B00B2FBF3F26423B2FBC4
:1041D000F3F201EB021200EBC00101EB0011636886
:1041E0009B00B1FBF3F100EBC00303EB0013666827
:1041F000B600B3FBF6F36426B3FBF6F303EBC3069A
:1042000006EB0313A1EB8301322303EB01116423BB
:10421000B1FBF3F101F00F0111442268916070BD10
:104220000038014010B5034699629A85DA8500206E
:104230005864222083F84200186928B11868C068C1
:1042400040F480701C68E0601868406940F001002C
:104250001C6860611868C06840F020001C68E0605D
:10426000002010BD014691F84100212828D188681E
:10427000B0F5805F0BD1086948B90A6A1088C0F3AD
:1042800008000B685860086A801C086205E00B6A29
:10429000581C086218780B685860C88C401E80B2A1
:1042A000C88458B90868C06820F080000B68D860DE
:1042B0000868C06840F040000B68D8600020704774
:1042C0000220FCE72DE9F04104460D4617469846CA
:1042D000069E34E0701C88B32EB1FDF7B5FEA0EB4E
:1042E0000800B0422BD900BF00BF21680C3151E853
:1042F000001F21F4D07021680C3141E80002002A2F
:10430000F3D100BF00BF00BF2168143151E8001F86
:1043100021F001002168143141E80002002AF3D1A4
:1043200000BF202084F8410084F8420000BF002034
:1043300084F8400000BF0320BDE8F081FFE720685B
:1043400000682840A84201D1012000E00020B842C6
:10435000C0D00020F0E7000008B50D48FEF7A6FD2C
:104360000B480068006800F0100010280FD100BF53
:10437000002000900648006800680090044800682B
:104380004068009000BF00BF01200249087008BDCE
:10439000940700201300002008B50D48FEF786FDA5
:1043A0000B480068006800F0100010280FD100BF13
:1043B00000200090064800680068009004480068EB
:1043C0004068009000BF00BF01200249087008BD8E
:1043D000DC0700201800002000BFFEE7490050EA7B
:1043E000C12018BF04204A0D18BF40F0010040F260
:1043F000FF72B2EB515F08BF40F00200012808BF16
:104400000520704702480068C0F302207047000092
:104410000CED00E010B5002804DB0A07130E054A76
:10442000135406E00A07140E034A00F00F031B1F83
:10443000D45410BD00E400E018ED00E030380A2844
:1044400001D2012070470020704700BF7047000074
:1044500000BF054A126802F04002002AF9D0C2B239
:10446000014B1B1D1A60704700380140FDF7B6FE76
:10447000FFF79AFCFFF7CAF9FFF778FA1B48FEF737
:1044800081FBFFF7A9FA012219491A48FEF74AFFF2
:1044900019A0FBF703FFFFF7BBFA012219491A48DD
:1044A000FEF740FF4FF0FF330B2218A11648FEF72E
:1044B000CFFFFFF7F9FA18A0FFF7B8FB4FF48041E0
:1044C0001848FDF7A9FD08B1012000E000201649B9
:1044D000087009E015480078012805D114A000F003
:1044E0002DF8002011490870F4E700008400002036
:1044F00012000020940700205553415254312049A6
:104500006E69740014000020DC07002055534152EE
:10451000543320496E6974004F4C45445F4F4B2122
:1045200000000000000C01400700002018000020DF
:10453000616263646566670D0A0000000FB438B5F8
:1045400005A800900A48009A0499FBF795FE002000
:1045500000900748FBF7D8FF84B24FF0FF332246A4
:1045600003490448FEF774FF38BC5DF814FB0000F3
:1045700094050020DC07002010B500290AD0087837
:10458000002807D005487844FCF704F8002801D03B
:10459000002010BD0248784410BD0000B2090000A0
:1045A000AA09000010B500290AD00878002807D011
:1045B00005487844FBF7EEFF002801D0002010BD2D
:1045C0000248784410BD0000A20900009A090000CA
:1045D000FCF74CBBFCF780BC0000000000000000B2
:1045E000002F000000000700070000147F147F1454
:1045F00000242A7F2A1200626408132300364955DA
:10460000225000000503000000001C2241000000B1
:1046100041221C000014083E08140008083E080847
:10462000000000A0600000080808080800006060A2
:104630000000002010080402003E5149453E0000E1
:10464000427F4000004261514946002141454B31C3
:10465000001814127F10002745454539003C4A498F
:104660004930000171090503003649494936000601
:104670004949291E00003636000000005636000069
:1046800000081422410000141414141400004122E4
:10469000140800020151090600324959513E007CBC
:1046A0001211127C007F49494936003E41414122A6
:1046B000007F4141221C007F49494941007F09098F
:1046C0000901003E4149497A007F0808087F00003F
:1046D000417F4100002040413F01007F08142241FA
:1046E000007F40404040007F020C027F007F0408B2
:1046F000107F003E4141413E007F09090906003E0E
:104700004151215E007F0919294600464949493136
:104710000001017F0101003F4040403F001F204059
:10472000201F003F4038403F006314081463000717
:104730000870080700615149454300007F4141006E
:1047400000552A552A55000041417F00000402010E
:1047500002040040404040400000010204000020EC
:1047600054545478007F484444380038444444202A
:1047700000384444487F00385454541800087E09D7
:1047800001020018A4A4A47C007F0804047800009F
:10479000447D4000004080847D00007F102844005C
:1047A0000000417F4000007C04180478007C08046D
:1047B000047800384444443800FC242424180018A9
:1047C000242418FC007C0804040800485454542095
:1047D00000043F444020003C4040207C001C20401E
:1047E000201C003C4030403C004428102844001C61
:1047F000A0A0A07C004464544C4414141414141459
:1048000000000000000000000000000000000000A8
:10481000000000F80000000000000033300000003D
:1048200000100C06100C0600000000000000000044
:1048300040C07840C0784000043F04043F040400B6
:10484000007088FC08300000001820FF211E0000C6
:10485000F008F000E018000000211C031E211E00DB
:1048600000F00888700000001E2123241927211061
:1048700010160E0000000000000000000000000004
:10488000000000E0180402000000000718204000AB
:1048900000020418E000000000402018070000009B
:1048A000404080F0804040000202010F01020200FF
:1048B000000000F0000000000101011F01010100E3
:1048C000000000000000000080B070000000000048
:1048D00000000000000000000001010101010101D1
:1048E0000000000000000000003030000000000068
:1048F000000000008060180400601806010000003D
:1049000000E010080810E000000F102020100F0039
:10491000001010F8000000000020203F20200000C0
:104920000070080808887000003028242221300018
:1049300000300888884830000018202020110E0020
:104940000000C02010F8000000070424243F2400C9
:1049500000F80888880808000019212020110E009E
:1049600000E0108888180000000F112020110E00B0
:1049700000380808C83808000000003F00000000A8
:104980000070880808887000001C222121221C0069
:1049900000E010080810E0000000312222110F0092
:1049A000000000C0C0000000000000303000000027
:1049B0000000008000000000000080600000000097
:1049C00000008040201008000001020408102000B0
:1049D00040404040404040000404040404040400FB
:1049E0000008102040800000002010080402010090
:1049F000007048080808F000000000303601000090
:104A0000C030C828E810E0000718272423140B0042
:104A10000000C038E0000000203C230202273820BC
:104A200008F8888888700000203F202020110E00A0
:104A3000C030080808083800071820202010080097
:104A400008F808080810E000203F202020100F0080
:104A500008F88888E8081000203F2020232018004C
:104A600008F88888E8081000203F200003000000B4
:104A7000C03008080838000007182020221E020055
:104A800008F808000008F808203F210101213F2014
:104A9000000808F8080800000020203F202000003F
:104AA00000000808F8080800C08080807F0000002F
:104AB00008F888C028180800203F20012638200068
:104AC00008F8080000000000203F202020203000CF
:104AD00008F8F800F8F80800203F003F003F2000E9
:104AE00008F830C00008F808203F200007183F00F1
:104AF000E01008080810E0000F10202020100F0020
:104B000008F808080808F000203F21010101000012
:104B1000E01008080810E0000F18242438504F0057
:104B200008F8888888887000203F2000030C302017
:104B300000708808080838000038202121221C0055
:104B4000180808F8080818000000203F200000009E
:104B500008F808000008F808001F202020201F0087
:104B60000878880000C83808000007380E010000E7
:104B7000F80800F80008F800033C0700073C0300B1
:104B8000081868808068180820302C03032C302017
:104B90000838C800C83808000000203F2000000086
:104BA00010080808C83808002038262120201800DE
:104BB000000000FE020202000000007F40404000B2
:104BC000000C30C000000000000000010638C000EA
:104BD00000020202FE000000004040407F00000092
:104BE00000000402020204000000000000000000B7
:104BF00000000000000000008080808080808080B5
:104C0000000202040000000000000000000000009C
:104C100000008080808000000019242222223F2092
:104C200008F8008080000000003F112020110E00D5
:104C30000000008080800000000E11202020110064
:104C4000000000808088F800000E112020103F2016
:104C50000000808080800000001F2222222213009A
:104C6000008080F0888888180020203F20200000E5
:104C70000000808080808000006B9494949360009A
:104C800008F8008080800000203F210000203F20A5
:104C900000809898000000000020203F20200000A5
:104CA000000000809898000000C08080807F000095
:104CB00008F8000080808000203F24022D30200072
:104CC000000808F8000000000020203F202000001D
:104CD0008080808080808000203F20003F20003F37
:104CE0008080008080800000203F210000203F2045
:104CF0000000808080800000001F202020201F00F6
:104D0000808000808000000080FFA12020110E0024
:104D10000000008080808000000E112020A0FF8015
:104D2000808080008080800020203F2120000100C2
:104D30000000808080808000003324242424190017
:104D4000008080E0808000000000001F2020000024
:104D50008080000000808000001F202020103F2065
:104D6000808080000080808000010E3008060100F5
:104D700080800080008080800F300C030C300F009A
:104D800000808000808080000020312E0E312000C5
:104D9000808080000080808080818E7018060100F5
:104DA00000808080808080000021302C2221300013
:104DB00000000000807C020200000000003F404034
:104DC00000000000FF00000000000000FF000000E5
:104DD0000002027C800000000040403F0000000014
:104DE00000060101020204040000000000000000AF
:104DF00002030405060708090A0B0C0D0E0F10101C
:104E00000102000000000000000001020304060788
:104E1000080900000000010203040400000800006B
:104E2000000000000002000100001000000000006F
:104E300000000000303132333435363738394142E2
:104E400043444546403058003031323334353637EC
:104E500038396162636465664030780030313233DE
:104E6000343536373839616263646566787000308E
:104E70003132333435363738394142434445465868
:104E80005000000002400000000000A000000000F0
:104E900005400000000000C8000000000C400000B9
:104EA0000000409C00000000194000000020BCBE33
:104EB0000000000034400000BFC91B8E0000000449
:104EC000B5400000504BCFD06607E2CF0100000094
:104ED0006C4100003E8251AADFEEA73401000000C1
:104EE000D9420000DCB5A0E23A301F97FFFFFFFF78
:104EF000B4450000FD25A0C8E9A3C14FFFFFFFFF97
:104F0000FF3F00000000008000000000FF3F0000A5
:104F10000000008000000000645000080000002035
:104F200030000000280100089450000830000020E4
:104F3000580E0000440100081C000000430000005F
:104F4000F8FFFFFF0C0000000E0000000F00000043
:104F50002E0000001001000043000000F8FFFFFFDA
:104F6000004040404040404040404141414141407C
:104F70004040404040404040404040404040404031
:104F800040050202020202020202020202020202C0
:104F900002202020202020202020200202020202C5
:104FA000020290909090909010101010101010101D
:104FB0001010101010101010101010100202020229
:104FC000020288888888888808080808080808086D
:104FD0000808080808080808080808080202020269
:104FE0004000000000000000000000000000000081
:104FF00000000000000000000000000000000000B1
:1050000000000000000000000000000000000000A0
:105010000000000000000000000000000000000090
:105020000000000000000000000000000000000080
:105030000000000000000000000000000000000070
:105040000000000000000000000000000000000060
:105050000000000000000000000000000000000050
:105060000000000000000000000000000000000040
:105070000000000000000000000000000000000030
:10508000000000000000000010000000010000000F
:045090000024F40004
:04000005080000ED02
:00000001FF
