:020000040800F2
:100000008007002005010008671B0008851900080B
:10001000651B00089D010008CD21000800000000BC
:100020000000000000000000000000006B1B000842
:10003000F701000800000000691B00086D1B0008A4
:100040001F0100081F0100081F0100081F01000810
:100050001F0100081F0100081F0100081F01000800
:100060001F0100081F0100081F0100081F010008F0
:100070001F0100081F010008A1010008AD010008D0
:100080001F0100081F0100081F0100081F010008D0
:100090001F0100081F0100081F0100081F010008C0
:1000A0001F0100081F0100081F0100081F010008B0
:1000B000011C00081F0100081F0100081F010008A3
:1000C0001F0100081F0100081F0100081F01000890
:1000D0001F010008492100081F0100081F01000836
:1000E0001F0100081F0100081F010008DFF810D0E1
:1000F00000F042F80048004795230008AFF3008065
:10010000800700200648804706480047FEE7FEE7D4
:10011000FEE7FEE7FEE7FEE7FEE7FEE7FEE7FEE7B7
:10012000FF1B0008ED000008D2B201E000F8012B2F
:10013000491EFBD270470022F6E710B513460A4667
:1001400004461946FFF7F0FF204610BD30B50B46B8
:10015000014600202022012409E021FA02F59D42F7
:1001600005D303FA02F5491B04FA02F52844151ECB
:10017000A2F10102F1DC30BD064C074D06E0E0685B
:1001800040F0010394E8070098471034AC42F6D3DE
:10019000FFF7B0FF4C2400086C240008FEE70000C5
:1001A000014800F09BB800003C030020014800F02B
:1001B00095B80000F802002030B590F840500124B6
:1001C000AC40C56B6C60046863604368102B0368C7
:1001D00003D099600068C26030BD9A600068C16059
:1001E00030BD10B501F090FB002803D0BDE81040F1
:1001F00000F002B810BD704772B6FEE710B590F877
:1002000021100022022905D00421816380F82020DA
:10021000012010BD01680B6823F00E030B6001681C
:100220000B6823F001030B6090F84030C46B012190
:1002300001FA03F3636080F8211080F82020104653
:1002400010BD000010B590F821100024022903D041
:100250000421816301243DE001680A6822F00E0256
:100260000A6001680A6822F001020A601A4A0168FD
:10027000914201D1012121E0174A1432914201D16A
:1002800010211BE0144A2832914201D1891515E052
:10029000114A3C32914201D189140FE00E4A50328A
:1002A000914202D14FF4803108E00B4A643291420E
:1002B00002D14FF4801101E04FF08071064A083AF4
:1002C0005160012180F82110002180F82010416B3D
:1002D00001B18847204610BD080002402DE9F05FBB
:1002E000C16B0C6801680B68D0F840C0042202FAA8
:1002F0000CF2494DDFF824A1494E4A4FDFF828B1EE
:10030000DFF828E122422CD05A072AD50A68920643
:1003100003D40A6822F004020A600168A94201D1EC
:10032000042219E0514501D1402215E0B14202D129
:100330004FF4806210E0B94202D14FF480420BE0EA
:10034000594502D14FF4802206E0714502D14FF4A5
:10035000800201E04FF080622F4908394A60C16A8B
:100360003BE04FF0020808FA0CF818EA040F4FF0CF
:1003700000094FF0010235D05FEA837832D50B686F
:100380009B0605D40B6823F00A030B6080F821203C
:100390000168A94201D1022219E0514501D1202270
:1003A00015E0B14202D14FF4007210E0B94202D11F
:1003B0004FF400520BE0594502D14FF4003206E0F1
:1003C000714502D14FF4001201E04FF00072124962
:1003D00008394A6080F82090816A00291AD0BDE867
:1003E000F05F0847082505FA0CF5254212D01B07D7
:1003F00010D50B6823F00E030B6090F84010C36B10
:1004000002FA01F15960826380F8212080F820907F
:10041000016BE2E7BDE8F09F080002401C000240CB
:100420003000024044000240580002406C0002408C
:1004300030B528B308C8134914221944B1FBF2F1AE
:100440008900C16310498163022141771A6843F62C
:10045000F0718A43D0E900142143D0E902452C43CE
:1004600021430469214344692143846921431143A1
:10047000196000214163012242770177084630BDAF
:10048000012030BDF8FFFDBF0000024070B50446FA
:1004900090F82000002501280CD0012084F82000CD
:1004A00094F821600020012E06D084F82000022557
:1004B000284670BD022070BD022684F82160A0632A
:1004C0002068066826F0010606602046FFF774FEE5
:1004D000E06A00282068016802D041F00E0106E0C1
:1004E00021F0040101602068016841F00A01016007
:1004F0002068016841F001010160D9E770B5044648
:1005000000F010F90546601C02D00448007804444D
:1005100000F008F9401BA042FAD370BD1000002083
:100520002DE9F84FDFF8B8910024A9F1040B234618
:100530000F2709F1040AABF1040EC9E00125A5401B
:100540002A40AA427DD1674ED1F804C0ACEB060820
:10055000B44532D014DCBCF1030F3AD009DCBCF155
:10056000000F2AD0BCF1010F1CD0BCF1020F31D119
:100570001DE0BCF1110F17D0BCF1120F2AD119E008
:10058000B8F5881F19D006DCB8F5803F15D0B8F54E
:10059000801F1FD111E0B8F5001F0ED0B8F5041F61
:1005A00018D10AE0CB6815E0CB681B1D12E0CB68C0
:1005B00008330FE0CB680C330CE08B682BB1012BB8
:1005C0004FF0080303D0456104E0042302E0056115
:1005D00000E00023FF2A01D8064601E000F10406EE
:1005E0004FEA840501D9A5F12005D6F8008007FA65
:1005F00005FC28EA0C0803FA05F548EA0508C6F8E0
:1006000000804D68ED0062D5374DAE6946F00106B9
:10061000AE61AD6924F0030605F001050095334D88
:1006200006EB050CDCF80850A607360F07FA06F8AB
:1006300025EA0805DFF8B880404503D14FF00008EF
:1006400017E044E0DFF8AC80404502D14FF00108EC
:100650000FE0DFF8A480404502D14FF0020808E027
:10066000DFF89880404502D14FF0030801E04FF0D9
:10067000040808FA06F848EA0508CCF808804D682E
:10068000D9F80060ED024D4601D5164300E09643CF
:100690002E604D68DAF80060AD02554601D516436C
:1006A00000E096432E604D68DBF80060AD035D46C8
:1006B00001D5164300E096432E604D68DEF80060D9
:1006C000ED03754601D5164300E096432E60641C89
:1006D0000D682A46E5407FF431AFBDE8F88F000091
:1006E0000804014000001110001002400000014009
:1006F00000080140000C01400010014000140140BE
:100700008068084000D001207047C26821EA0203D7
:100710000A4043EA0241016170470AB10161704732
:100720000904FBE7014880687047000010000020C2
:1007300002488168027811448160704710000020EF
:10074000074810B5016841F010010160032000F076
:1007500079F8032000F006F800F024F8002010BD1E
:100760000020024070B50D4D04464FF47A71287890
:10077000B1FBF0F00A490968B1FBF0F000F0E0FAD3
:1007800048B9102C07D200222146501E00F03AF83A
:1007900000206C6070BD012070BD000010000020C2
:1007A0001C0000200E4808B5816941F001018161FB
:1007B000816901F001010091C16941F08051C1617D
:1007C000C06900F080500090052000F03BF805481B
:1007D000416821F0E06141F00071416008BD000016
:1007E0000010024000000140002809DB00F01F0259
:1007F000012191404009800000F1E020C0F8001183
:1008000070470000F0B40E4B1B680C46C3F3022384
:10081000C3F10705042D00D90425191D072901D2AC
:10082000002300E0DB1E012606FA05F1491E2140E7
:1008300099409E40761E16403143F0BC01F0D8BC72
:100840000CED00E0064900F0070208684FF6FF03D0
:10085000184040EA0220034A104308607047000035
:100860000CED00E00000FA052DE9F0470F46050009
:1008700061D0434E306800F00700B84209D23068BA
:1008800020F0070038433060306800F00700B842BD
:1008900051D128683B4C810712D5400703D56068C9
:1008A00040F4E06060602878000703D5606840F499
:1008B000605060606068A96820F0F00008436060E4
:1008C0002878C00728D06868012810D0216802283D
:1008D00010D0890700292EDA616821F00301014355
:1008E0006160FFF71FFF804641F288390DE0216803
:1008F0008903EFE78901EDE7FFF714FFA0EB08019B
:10090000494502D90320BDE8F0876068696800F0B6
:100910000C00B0EB810FEFD1306800F00700B84257
:100920000BD9306820F0070038433060306800F0A1
:100930000700B84201D00120E5E72878400705D537
:100940006068E96820F4E060084360602878000788
:1009500006D56068296920F4605040EAC1006060F3
:1009600000F038F86168084AC1F30311515CC840CF
:100970000649086006480068FFF7F4FE0020C2E759
:100980000020024000100240322400081C00002019
:10099000140000200448054900684968044AC1F36E
:1009A0000221515CC84070471C000020001002402A
:1009B000422400080448054900684968044AC1F314
:1009C000C221515CC84070471C000020001002404A
:1009D000422400080E4A51680E4801F00C03042B13
:1009E00011D0082B0FD10C48C1F38343C903C05C5D
:1009F0000AD55168084AC1F34041921E515C054A2C
:100A00005043B0FBF1F07047044948437047000081
:100A10000010024000127A002224000800093D0064
:100A20002DE9F84F040070D02078C04DC00749D0A0
:100A30006868C0F38100012807D06868C0F38100AE
:100A4000022809D16868C00306D52868800339D513
:100A500060680028E7D035E06068B0F5803F0BD0D3
:100A600010B1B0F5A02F11D0286820F48030286094
:100A7000286820F4802002E0286840F48030286054
:100A8000606890B1FFF74EFE06460AE0286840F421
:100A900080202860F0E700BFFFF744FE801B642839
:100AA00073D828688003F7D50CE0FFF73BFE0646B5
:100AB00005E000BFFFF736FE801B6428F0D82868E9
:100AC0008003F7D420789A4E80074FF001094FF049
:100AD000000839D5686810F00C0F07D06868C0F3BB
:100AE0008100022809D16868C00306D428688007FD
:100AF00014D52069012808D110E02069B0B1C6F8EA
:100B00000090FFF70FFE074605E00AE1FFF70AFE37
:100B1000C01B0228C4D828688007F7D528686169F7
:100B200020F0F80040EAC10028600DE0C6F800801F
:100B3000FFF7F8FD074604E0FFF7F4FDC01B0228AD
:100B400023D828688007F7D4207800072CD5794867
:100B5000A169D9B1C0F80090FFF7E4FD074604E0B1
:100B6000FFF7E0FDC01B02280FD8686A8007F7D5A1
:100B700071484FF4FA510068B0FBF1F0009000BFEB
:100B80000098411E0091FAD20EE080E0C0F800808B
:100B9000FFF7C8FD074604E0FFF7C4FDC01B0228AD
:100BA00075D8686A8007F7D42078400760D5E8696F
:100BB0000027C00008D4E86940F08050E861E86987
:100BC000012700F0805000905C480168C90513D4EB
:100BD0000168834641F480710160FFF7A3FD8246FE
:100BE00006E000BFFFF79EFDA0EB0A0064284ED888
:100BF000DBF80000C005F5D5E06801280AD008B18F
:100C0000052813D0286A20F001002862286A20F005
:100C1000040002E0286A40F001002862E06841F226
:100C2000883B98B1FFF77EFD82460BE0286A40F0D2
:100C300004002862EEE700BFFFF774FDA0EB0A0195
:100C400059455AD8286A8007F6D50CE0FFF76AFDA7
:100C5000824605E0FFF766FDA0EB0A0159454CD836
:100C6000286A8007F6D41FB1E86920F08050E86157
:100C7000E06988B36968C1F38101022944D0022880
:100C8000C6F8608004D0FFF74DFD044638E034E03C
:100C9000FFF748FD074604E0FFF744FDC01B0228AC
:100CA0002BD828688001F7D4206AB0F5803F05D1A1
:100CB0006868A16820F4003008436860D4E908013E
:100CC0000843696821F4741108436860C6F86090AD
:100CD000FFF728FD044606E025E000BFFFF722FDF0
:100CE000001B022809D828688001F7D51BE000BF47
:100CF000FFF718FD001B022802D90320BDE8F88F7A
:100D000028688001F4D40EE00128F7D06868226AD0
:100D100000F48031914204D1616A00F4701088427D
:100D200001D00120EAE70020E8E7000000100240BF
:100D300000004242800442421C000020007000403B
:100D400010B5401EB0F1807F01D3012010BD4FF0DF
:100D5000E02460610F21601701F04AFA0020A061D1
:100D600007202061002010BD7047704770B590F8D3
:100D70003C20012A26D0012480F83C40022280F841
:100D80003D2003685A689D6822F070060A68324365
:100D90005A600D4B02689A4208D0B2F1804F05D0DC
:100DA0000A4B9A4202D00A4B9A4204D1496825F074
:100DB00080031943916080F83D40002180F83C1089
:100DC000084670BD022070BD002C014000040040A8
:100DD0000008004010B5040003D094F83D0010B1A5
:100DE00007E0012010BD002084F83C00204600F000
:100DF0001FF8022084F83D00211D206800F006FF46
:100E0000012084F8460084F83E0084F83F0084F80E
:100E1000400084F8410084F8420084F8430084F8DC
:100E2000440084F8450084F83D00002010BD000017
:100E300000B585B0002100910191029103910068F5
:100E4000B0F1804F1FD11148C16941F00101C1616A
:100E5000C16901F001010491816941F004018161DE
:100E60008069694600F0040004900120009002901F
:100E70000748FFF755FB002201211C20FFF7C2FCA9
:100E80001C20FFF7B1FC05B000BD000000100240BF
:100E90000008014090F83D10012901D00120704761
:100EA000022180F83D100168CA6842F00102CA6060
:100EB00000680B49884208D0B0F1804F05D009493D
:100EC000884202D00849884204D1816801F00701B4
:100ED000062903D0016841F001010160002070473C
:100EE000002C0140000400400008004070B504469A
:100EF00090F83C000025012817D0012684F83C60BA
:100F0000022084F83D002068826822F0770222F4F3
:100F10007F4282600868502838D00DDC20284FD0EE
:100F200005DC90B3102811D14AE0022070BD3028B2
:100F300046D040280AD13BE060282FD070280DD041
:100F4000B0F5805F03D0B0F5005F12D0012584F8C2
:100F50003D60002084F83C00284670BDCB68D1E994
:100F60000121206800F095FE2068816841F077013A
:100F700009E0CB68D1E90121206800F08AFE2068F1
:100F8000816841F480418160E1E719E0CA684968FD
:100F9000206800F090FE5021206806E0CA68496889
:100FA000206800F0C5FE6021206800F07CFECEE7DE
:100FB000CA684968206800F07EFE40212068F4E796
:100FC000226801461046F0E770B50068B0F1804F26
:100FD00057D101212B48FFF793FB2B4D2B4C0026BB
:100FE00078B12868016A21F00A0101622868016A63
:100FF00041F00201016228684662207840F010004A
:101000003EE00021204800F049FA296880B20A6ACF
:1010100022F00A020A6229680A6A0A622178CA066C
:101020002BD50A064FF4F9731ED5A0F22D129A4261
:1010300002D86068400808E0A0F27952B2F5C77F94
:1010400005D86068400840F00040606015E040F25C
:10105000E732A0F2D17090420FD26078401C6070ED
:1010600001F0F000207008E0A0F580506938984247
:1010700003D841F0800020706670207820F01000C6
:10108000207070BD000801406800002004000020AE
:101090002DE9F041054690F83C0000260C46012859
:1010A00010D0012085F83C0072B1042A1CD0082A17
:1010B0002CD00C2A50D00126002085F83C00304668
:1010C000BDE8F0810220FBE7D4E90012E36828685C
:1010D00000F002FE2868816921F00C018161286816
:1010E0008169A26811430FE0D4E90012E36828681F
:1010F00000F030FE2868816921F440618161286830
:101100008169A26841EA02218161D5E72868D4E9B2
:10111000002C277B036A016A21F480710162C16996
:1011200023F4007321F0030141EA0C0121F0F00CDB
:1011300039074FF400774CEA116107EA02221A439B
:10114000C16102622868C16921F00C01C16128688F
:10115000C169A26811432BE02868D4E90021E7683F
:10116000036AD0F820C02CF4805CC0F820C0D0F80E
:101170001CC023F400532CF4407C4CEA012121F4E0
:10118000704C4FF6FF7101EA07314FF4005741EA06
:101190000C0107EA02321A43C16102622868C16980
:1011A00021F44061C1612868C169A26841EA022155
:1011B000C16181E710B5040003D094F83D0010B17F
:1011C00007E0012010BD002084F83C00204600F01C
:1011D0001EF8022084F83D00211D206800F016FD55
:1011E000012084F8460084F83E0084F83F0084F82B
:1011F000400084F8410084F8420084F8430084F8F9
:10120000440084F8450084F83D00002010BD70477C
:1012100030B50446002551B104290DD0082910D05D
:1012200094F8410094F84520012811D10EE094F87B
:101230003E0094F84220F7E794F83F0094F84320EA
:10124000F2E794F8400094F84420EDE7012A01D039
:10125000012030BD022059B1042912D0082919D02B
:1012600084F8410084F845000C2938D0012534E089
:1012700084F83E0084F842002068C26842F002020E
:1012800010E084F83F0084F843002068C26842F010
:10129000040207E084F8400084F844002068C26833
:1012A00042F00802C2600122206800F0E5FC0E490D
:1012B0002068884208D0B0F1804F05D00B498842A1
:1012C00002D00B49884204D1816801F00701062948
:1012D00003D0016841F001010160284630BD20685B
:1012E000C26842F01002DDE7002C0140000400401B
:1012F0000008004070B50446006801694FF0000521
:10130000C943890715D4C168C943890711D4E91EA7
:10131000016101202077206880698007204602D083
:10132000FFF752FE04E000F098F8204600F096F82F
:10133000257720680169C943490717D4C168C943A3
:10134000490713D46FF0040101610220207720685F
:10135000806910F4407F204602D0FFF735FE04E09C
:1013600000F07BF8204600F079F8257720680169C5
:10137000C943090716D4C168C943090712D46FF0DD
:1013800008010161042020772068C0698007204699
:1013900002D0FFF719FE04E000F05FF8204600F0ED
:1013A0005DF8257720680169C943C90617D4C1686B
:1013B000C943C90613D46FF01001016108202077DA
:1013C0002068C06910F4407F204602D0FFF7FCFD82
:1013D00004E000F042F8204600F040F8257720684D
:1013E0000169C943C90708D1C168C943C90704D104
:1013F000891E0161204600F033F820680169C94365
:10140000090609D4C168C943090605D46FF08001F3
:1014100001612046FFF7A8FC20680169C94349061D
:1014200009D4C168C943490605D46FF04001016180
:10143000204600F048F820680169C94389060BD4AA
:10144000C168C943890607D46FF0200101612046B5
:10145000BDE87040FFF789BC70BD70477047000061
:101460000068B0F1804F15D10B4801780A0611D5FC
:1014700021F0100101700A0702D141F04001017012
:10148000C9B201F00F020E2A01D2491C01E001F09D
:101490007001017070470000040000200246002027
:1014A00041B1042909D008290AD00C2901D11068BA
:1014B000006C70471068406B70471068806B704715
:1014C0001068C06B70477047704710B504460068DD
:1014D000406994F84110C0F3C010212911D180B1A6
:1014E0002068143050E8001F21F0800140E800120D
:1014F000002AF5D1A06B08B1FEF780FE204600F06F
:1015000010FD2068406994F84210C0F38010222931
:1015100011D180B12068143050E8001F21F0400143
:1015200040E80012002AF5D1E06B08B1FEF766FE34
:10153000204600F0CFFC002010BD7047F8B50168D0
:1015400004460868CA684B6910F00F0F4FF0000599
:1015500059D003F0010602F49077374365D0C107F4
:1015600005D0D10503D5616C41F0010161644107EB
:1015700005D5D90703D0616C41F002016164810790
:1015800005D5D90703D0616C41F0040161640107FE
:1015900007D502F02001314303D0616C41F008010E
:1015A0006164616C00293AD0800604D5900602D5AA
:1015B000204600F0C4FC20684069616CC0F38010D4
:1015C000090700D460B3204600F084FC206840691D
:1015D000400621D52068143050E8001F21F040015A
:1015E00040E80012002AF5D1E06BA8B16D494163D3
:1015F000E06BFEF727FE002811D0E06B416B01B0D5
:10160000BDE8F040084783060FD593060DD5204668
:10161000BDE8F84000F093BC2046FFF78EFFF8BD10
:101620002046FFF78AFF6564F8BD266B2023012E54
:101630007CD1C6067AD5D60678D508684868009069
:1016400048694FF00206400640D5E16B08684068E3
:101650000004000CE8D0A28D8242E5D9E0858869BB
:1016600020282DD020680C3050E8001F21F4807114
:1016700040E80012002AF5D12068143050E8001F1D
:1016800021F0010140E80012002AF5D12068143051
:1016900050E8001F21F0400140E80012002AF5D177
:1016A00084F84230256320680C3050E8001F21F098
:1016B000100140E80012002AF5D1E06BFEF79EFD14
:1016C0006663A08DE18D401A81B22AE0A08DE18D84
:1016D000401A81B2E08D0028A6D00029A4D022684B
:1016E0000C3252E8000F20F4907042E80007002FFF
:1016F000F5D12068143050E8002F22F0010240E8B4
:101700000027002FF5D184F84230256320680C3083
:1017100050E8002F22F0100240E80023002BF5D102
:1017200066632046FFF7D0FEF8BDFFE705062BD520
:10173000150629D594F841002128F5D1A068B0F507
:10174000805F01D12069B0B1206A411C216221680B
:1017500000784860E08C401E0004000CE084E3D177
:101760002068C16821F08001C1602068C16841F033
:101770004001C160D8E7206A0088C0F308004860D3
:10178000206A801C2062E5E74006CDD55006CBD507
:10179000CA68204622F04002CA6084F8413000F056
:1017A000EFF8C1E78B1D000870B5040004D094F871
:1017B0004100002510B106E0012070BD84F84050C2
:1017C000204600F023F8242084F841002068C168F6
:1017D00021F40051C160204600F012FC206801692C
:1017E00021F4904101612068416921F02A014161A1
:1017F0002068C16841F40051C1606564202084F80C
:10180000410084F842006563002070BDF0B585B0EA
:1018100000240646009401940294039400682D4924
:10182000884254D12C48816941F4804181618169A9
:1018300001F480410491816941F004018161806972
:10184000264D00F0040004904FF400700090022038
:1018500001900320039069462846FEF761FE281593
:10186000CDE90004694628460294FEF759FE1D4D55
:101870001B488027C5E90004C5E902472C616C615B
:10188000AC612846EC61FEF7D3FD08B1FEF7B4FC6D
:10189000F5636E62134D12484435143801C51020AB
:1018A00091C5104845F8104944306C61AC61EC6159
:1018B000FEF7BEFD08B1FEF79FFCB56300220221D2
:1018C00025206E62FEF79EFF2520FEF78DFF05B0F6
:1018D000F0BD000000380140001002400008014047
:1018E00058000240F802002090F84230202B01D02E
:1018F0000220704721B11AB10023036300F0DCBB62
:10190000012070477047704770B5044690F8410059
:10191000202801D0022070BD49B342B32162A284C5
:10192000E28400206064212384F84130A56B114BD0
:10193000AB62A56B104BEB62A56B104B2B63A36BDB
:101940005863256813462A1DA06BFEF79FFD21688A
:101950006FF0400008602068143050E8001F41F02C
:10196000800140E80012002AF5D1002070BD01205E
:1019700070BD0000891E0008CB1E00089B1D0008DA
:1019800070477047FEE70000174808B5416941F00D
:10199000010141614069154900F0010000901448BF
:1019A000802201604FF4804141600021C0E90212B1
:1019B000016141618161C161FEF73AFD08B1FEF745
:1019C0001BFC002211460E20FEF71CFF0E20FEF726
:1019D0000BFF002211460F20FEF714FFBDE8084060
:1019E0000F20FEF701BF0000001002400800024077
:1019F0002400002070B586B000251B480095019595
:101A000002950395816941F010018161816901F0BE
:101A100010010491816941F020018161816901F027
:101A200020010491816941F00401816180690122F2
:101A300000F004000D4E5403049021463046FEF79A
:101A40006CFE00940124019402946946304603948C
:101A5000FEF766FDA003CDE9000569460294304615
:101A6000FEF75EFD06B070BD0010024000100140A0
:101A700010B58AB00024264804940594069407946F
:101A8000089409940094019402944FF080410394C7
:101A900001604721C0E9011442F20F71C0E903144B
:101AA00080218161FFF796F908B1FEF7A5FB4FF49D
:101AB0008050049004A91648FFF718FA08B1FEF701
:101AC0009BFB1348FFF776FB08B1FEF795FB0894E4
:101AD00008A90F480994FFF749F908B1FEF78CFBF4
:101AE0000120CDE900400820CDE9024000226946EE
:101AF0000748FFF7CDFA08B1FEF77EFB0448FFF771
:101B0000C9F900210248FFF783FB0AB010BD0000AD
:101B10006800002010B5114C0F480C2120604FF4D4
:101B2000E13060600020A060E060C4E90401A061D1
:101B3000E0612046FFF738FE08B1FEF75DFB206844
:101B4000C16841F01001C160BDE810404FF400725F
:101B500003490248FFF7C8BE00380140B002002028
:101B6000B0000020FEE7FEE77047704710B50A4C52
:101B70002088401C2080FEF7DBFD2088B0F57A7FAE
:101B800008D900202080BDE810404FF400510348E0
:101B9000FEF7BBBD10BD000000000020001001409A
:101BA00030B58FB028216846FEF7C5FA14210AA87F
:101BB000FEF7C1FA01210804CDE9001000240294C7
:101BC00002250491CDE907504FF4E01009906846D2
:101BD000FEF726FF08B172B6FEE70F20CDE90A0531
:101BE0004FF48060CDE90C4002210AA80E94FEF764
:101BF0003BFE002801D072B6FEE70FB030BD704743
:101C00000148FFF777BB000068000020F0B50268CC
:101C1000164B174C174D4FF08047984205D0B842ED
:101C200003D0A04201D0A84203D122F070064A6836
:101C30003243984205D0B84203D0A04201D0A84216
:101C400003D122F44074CA6822434C6922F0800216
:101C5000224302608A68C2620A688262984201D1A5
:101C60000969016301214161F0BD0000002C0140C0
:101C7000000400400008004010B501F01F030121DE
:101C8000046A99408C430462016A9A4011430162DC
:101C900010BD10B5846842EA032224F47F440A434D
:101CA0002243826010BD826822F070020A4342F033
:101CB00007018160704710B5036A046A24F00104CB
:101CC0000462846924F0F00444EA021423F00A0256
:101CD0000A438461026210BD70B5056A046A24F08B
:101CE0000104046284690F4EB04208D0B0F1804F05
:101CF00005D00D4EB04202D00C4EB04203D124F0BC
:101D00000304144301E044F001041A0724F0F00432
:101D100044EA126225F00A0301F00A0119438261C4
:101D2000016270BD002C014000040040000800402A
:101D300010B5036A046A24F010040462846923F075
:101D4000A00324F4704444EA023243EA01118261A0
:101D5000016210BD30B5046A056A25F01005056200
:101D6000856925F4407545EA022222F470454FF654
:101D7000FF7202EA033224F0A0032A43A02404EAFB
:101D8000011119438261016230BD10B5406A002122
:101D9000C185C184FFF7D1FB10BD70B5446A2068CE
:101DA000406994F84110C0F3C0100025212904D1E6
:101DB00018B1E584204600F0B4F82068406994F832
:101DC0004210C0F38010222904D118B1E5852046C5
:101DD00000F080F8606C40F0100060642046FFF76F
:101DE000ACFB70BD10B50146406A096809684FF048
:101DF000000289062ED4C28501680C3151E8003FEB
:101E000023F4807341E80034002CF5D101681431CB
:101E100051E8003F23F0010341E80034002CF5D1E4
:101E20000168143151E8003F23F0400341E80034D9
:101E3000002CF5D1202180F84210016B012909D135
:101E400001680C3151E8003F23F0100341E80034F1
:101E5000002CF5D14263016B012902D0FFF752FD3E
:101E600010BD818DFFF730FB10BD10B5406A012118
:101E70004163016B012902D0FFF745FD10BD818D43
:101E80004908FFF721FB10BD10B50146406A0968FB
:101E90000968890616D40021C1840168143151E80B
:101EA000002F22F0800241E80023002BF5D10168C9
:101EB0000C3151E8002F42F0400241E80023002B92
:101EC000F5D110BDFFF75CFD10BD10B5406AFFF7FE
:101ED00058FD10BD01680C3151E8002F22F49072BA
:101EE00041E80023002BF5D10168143151E8002F9F
:101EF00022F0010241E80023002BF5D1016B0129FA
:101F000009D101680C3151E8002F22F0100241E89C
:101F10000023002BF5D1202180F84210002101631D
:101F2000704701680C3151E8002F22F0C00241E8EF
:101F30000023002BF5D1202180F84110704708B50F
:101F400090F84210222901D0022008BD82684FF487
:101F500080539A4201D1016921B1816A9A421BD012
:101F60004AB10AE00268816A5268C2F308020A8034
:101F7000816A891C08E0026972B10268526802F045
:101F80007F020A70816A491C8162C18D491E090461
:101F9000090CC18503D01BE002685268F1E70168B3
:101FA000CA6822F02002CA600168CA6822F48072FE
:101FB000CA6001684A6922F001024A61202180F862
:101FC000421000214163026B012A03D0FFF79AFC03
:101FD000002008BD016301680C3151E8002F22F098
:101FE000100241E80023002BF5D101680A68D206EF
:101FF00002D50A6849680091818DFFF765FAE7E725
:1020000070B5044600680169E26821F4405111434B
:1020100001612169A0680843616908432168CA68B1
:1020200041F20C639A430243CA6020684169A26985
:1020300021F44071114341611E492068884202D158
:10204000FEF7B8FC01E0FEF7A5FC00EBC00101EBD8
:102050000012606864218000B2FBF0F3B3FBF1F37F
:102060006FF018067343B2FBF0F5B2FBF0F605EB28
:102070008305322303EB0515B5FBF1F5B6FBF1F64D
:1020800005F0F00505EB0615B2FBF0F6B2FBF0F03B
:10209000B0FBF1F06FF01802504306EB800003EB49
:1020A0000010B0FBF1F0216800F00F0028448860B8
:1020B00070BD00000038014038B581620446828559
:1020C000002013466064222284F84220E56B1B4AFC
:1020D000AA62E56B1A4AEA62E56B1A4A2A63E26B66
:1020E00050630A462168E06B091DFEF7CFF92068AE
:1020F000016840680090206948B120680C3050E8C1
:10210000001F41F4807140E80012002AF5D12068D8
:10211000143050E8001F41F0010140E80012002A8D
:10212000F5D12068143050E8001F41F0400140E82C
:102130000012002AF5D1002038BD0000E51D00087E
:102140006B1E00089B1D00080C4808B5006801685C
:10215000C9060ED50168406800900848FFF7B5F938
:102160000748006840680749404208700649012056
:102170000870BDE808400148FFF7E0B9B002002050
:10218000F80200200C0000200D00002010B50D4CBE
:102190006078002815D022780B4901F50070FEF711
:1021A00020F800202070607021780748FDF7C3FFF9
:1021B0000549BDE810404FF4007201F50070FFF7CB
:1021C00093BB10BD0C000020B0000020FEE7000013
:1021D0000FB4054B10B503A9044A029800F028F883
:1021E00010BC5DF814FB00008523000820000020CF
:1021F0000907090E002804DB00F1E02080F8001434
:10220000704700F00F0000F1E02080F8141D7047C7
:1022100002E008C8121F08C1002AFAD170477047AF
:10222000002001E001C1121F002AFBD1704700000D
:102230002DE9FF4F89B09B460446002506E025287E
:102240000BD05A460B999047641C6D1C20780028CF
:10225000F5D10DB02846BDE8F08F0027B846012221
:10226000474900E0074314F8013F203B02FA03F01E
:102270000842F7D120782E2819D114F8010F47F021
:1022800004072A280ED06FF02F022078A0F1300129
:1022900009290CD808EB880102EB410100EB010889
:1022A000641CF2E70A98641C50F8048B0A902078AA
:1022B0000028CED0642808D0692806D075281ED002
:1022C0005A460B9990476D1C58E00A994FF00A093D
:1022D00001C90A91002802DA40422D2102E03905A5
:1022E00004D52B218DF82010012103E0F90704D03B
:1022F0002021F7E78A4608AE0DE00021FAE70A99A7
:102300004FF00A0901C90A91F7E74946FDF71EFF98
:10231000303106F8011D0028F7D1ADEB060000F1C1
:102320002009780701D44FF00108C84502DDA8EB69
:10233000090000E000208046002706E008A85A4671
:10234000C05D0B9990476D1C7F1C5745F6DB04E080
:1023500030205A460B9990476D1CB8F10001A8F146
:102360000108F5DC05E016F8010B5A460B99904779
:102370006D1CB9F10001A9F10109F4DC641C65E7E9
:102380000928010002490A681206FCD54860704716
:1023900000380140FEF7D4F9FFF702FCFFF72AFBF3
:1023A000FFF7F2FAFFF764FBFFF7B4FB074C00BF3F
:1023B000FFF7ECFE00F012F80028F9D004A0216825
:1023C000FFF706FF0A20FEF799F8F1E70800002062
:1023D00048572069732025640D0A000030B50F4965
:1023E00000200C78620617D54A686FEA1225D3B22E
:1023F000EDB29D420BD153B9C2F307436FEA1262AB
:10240000D2B29A4203D1180001D0220604D424F09B
:1024100040020A7000224A7030BD00000400002013
:10242000010202030405060708090A0B0C0D0E0F32
:102430001010000000000000000001020304060765
:102440000809000000000102030400006C240008D9
:102450000000002024000000102200089024000842
:10246000240000205C07000020220008000000007B
:10247000000000000000000000000000010000005B
:1024800010000000000000000024F4000000000024
:04000005080000ED02
:00000001FF
